:100000000C9401010C9429010C9429010C942901F0
:100010000C9429010C9429010C9429010C942901B8
:100020000C9429010C9429010C949C0E0C940B0F38
:100030000C9429010C9429010C9429010C94290198
:100040000C9429010C9429010C9429010C94290188
:100050000C9429010C9429010C9429010C949511FC
:100060000C9429010C9463110C943D110C942901FA
:100070000C9429010C9429010C9429010C94290158
:100080000C9429010C9429010C9429010C94290148
:100090000C94DF110C9429010C9429010C94290172
:1000A0000C9429010C9429010C94290108000000EA
:1000B000BE922449123EABAAAA2ABECDCCCC4C3E5D
:1000C00000000080BEABAAAAAA3E00000000BF004C
:1000D0000000803F0000000000084178D3BB438748
:1000E000D1133D190E3CC3BD4282AD2B3E68EC825C
:1000F00076BED98FE1A93E4C80EFFFBE01C4FF7FE1
:100100003F000000000000000000240027002A003B
:100110002D00300000000000250028002B002E00DC
:100120003100080B00020202000009040000010275
:10013000020000052400100105240101010424022D
:10014000060524060001070581031000400904018B
:1001500000020A00000007050202400000070583B4
:10016000024000000403090412010002EF020140F2
:100170004F1B0692000101020301537061726B462E
:10018000756E00537061726B46756E2050726F20F1
:100190004D6963726F0000000000230026002900F3
:1001A0002C002F00040404040403040502020202CC
:1001B0000403020202020606060606060404020200
:1001C00002040404080201104080401020408040D6
:1001D000800802040180402010020110801020409D
:1001E00040200000000200090F0000030401000C81
:1001F00000000000000000000000000000000000FF
:100200005F1311241FBECFEFDAE0DEBFCDBF12E0D7
:10021000A0E0B1E0ECE5FBE302C005900D92AA3F3F
:10022000B107D9F725E0AAEFB2E001C01D92A036D0
:10023000B207E1F711E0C1E0D1E004C02197FE016F
:100240000E94721CC030D107C9F70E94F8130C94A9
:10025000AC1D0C94000008950895FC018091E20308
:10026000882311F13FB7F89482E08093E900209150
:10027000F200822F90E01816190614F481E090E045
:10028000882339F0289844E64093E1034091F10037
:100290004083222339F02091F200211103C02BE684
:1002A0002093E8003FBF08958FEF9FEF08952FB789
:1002B000F89483E08093E9009091E800892F8072A0
:1002C00095FF04C09091F20080E4891B2FBF089530
:1002D0008091D90381110DC082E08093D50384E021
:1002E0008093D6031092D8031092D70381E08093B5
:1002F000D90385ED93E008954091690350916A0315
:10030000209167033091680342175307B4F490912A
:10031000E8009570E1F39091E80092FD19C0809398
:10032000F1008091690390916A0301968F73992778
:10033000892B19F48EEF8093E800809169039091E6
:100340006A03019690936A038093690381E008959C
:1003500080E00895DF92EF92FF920F931F93CF9367
:10036000DF93D82E8A01EB017B01E40EF51ECE153A
:10037000DF0559F0D7FE12C0FE0184910E947C0176
:1003800021968111F4CF0FEF1FEFC801DF91CF91BC
:100390001F910F91FF90EF90DF9008958881EECF2D
:1003A0000F931F93CF93DF931F92CDB7DEB782E0F9
:1003B000898342E450E062E271E080E80E94AA0191
:1003C0000E946801DC0112960D911C910115110526
:1003D00089F0D801ED91FC910280F381E02DBE01FE
:1003E0006F5F7F4FC801099597FD04C0F801008534
:1003F0001185ECCF89810F90DF91CF911F910F91E3
:100400000895615030F02091F100FC0120830196A5
:10041000F8CF289884E68093E1030895AF92BF92C5
:10042000CF92DF92EF92FF920F931F93CF93DF93C0
:100430006C017B018B01040F151FEB015E01AE18EF
:10044000BF08C017D10759F06991D601ED91FC9111
:100450000190F081E02DC6010995892B79F7C5013E
:10046000DF91CF911F910F91FF90EF90DF90CF9090
:10047000BF90AF900895FC01538D448D252F30E03F
:10048000842F90E0821B930B541710F0CF960895A1
:1004900001970895FC01918D828D981761F0A28DCE
:1004A000AE0FBF2FB11D5D968C91928D9F5F9F7394
:1004B000928F90E008958FEF9FEF0895FC01918D4A
:1004C000828D981731F0828DE80FF11D858D90E0B7
:1004D00008958FEF9FEF0895FC01918D228D892F54
:1004E00090E0805C9F4F821B91098F73992708953C
:1004F0008FE694E00E946C0221E0892B09F420E051
:10050000822F089580E090E0892B29F00E947802E4
:1005100081110C9400000895FC01A48DA80FB92F3F
:10052000B11DA35ABF4F2C91848D90E001968F731B
:100530009927848FA689B7892C93A089B1898C913A
:1005400082748C93938D848D981306C00288F389EE
:10055000E02D80818F7D80830895EF92FF920F932D
:100560001F93CF93DF93EC0181E0888F9B8D8C8D5F
:10057000981319C0E889F989808185FF14C09FB755
:10058000F894EE89FF896083E889F9898081827413
:1005900080839FBF81E090E0DF91CF911F910F9109
:1005A000FF90EF900895F62E0B8D10E00F5F1F4F18
:1005B0000F731127E02E8C8D8E110CC00FB607FC27
:1005C000FACFE889F989808185FFF5CFCE010E94B5
:1005D0008C02F1CFEB8DEC0FFD2FF11DE35AFF4F95
:1005E000F0829FB7F8940B8FEA89FB898081806243
:1005F000CFCFCF93DF93EC01888D8823B9F0AA8900
:10060000BB89E889F9898C9185FD03C0808186FDCD
:100610000DC00FB607FCF7CF8C9185FFF2CF80811C
:1006200085FFEDCFCE010E948C02E9CFDF91CF9103
:100630000895CF93DF931F92CDB7DEB76983DC01B6
:10064000ED91FC910280F381E02D41E050E0BE018C
:100650006F5F7F4F09950F90DF91CF91089583E0F1
:100660008093E9008091F200882319F08AE3809357
:10067000E80008950E94570190E00895CF93DF931A
:100680001F92CDB7DEB7FC018485958597FD08C024
:100690002FEF3FEF358724870F90DF91CF9108959B
:1006A000CE0101960E942D01019719F4898190E0F5
:1006B000F3CF8FEF9FEFF0CF0F931F93CF93DF9385
:1006C0001F92CDB7DEB78C01FC018485958597FF1D
:1006D0000BC0CE0101960E942D01019771F4898112
:1006E00090E0F80195878487F801848595850F90BF
:1006F000DF91CF911F910F9108958FEF9FEFF1CF71
:10070000FC018485958597FD0BC09FB7F89482E026
:100710008093E9008091F2009FBF90E001960895D8
:100720009FB7F89482E08093E9008091F2009FBF28
:1007300090E0089581508F3008F047C0E82FF0E036
:10074000EC55FC4F0C94721CC103C503B303B903F1
:10075000BD03E503E503E503C803CE03D203D603D7
:10076000DC03E503E003809180008F7780938000B5
:100770000895809180008F7DF9CF80918000877FE0
:10078000F5CF84B58F7784BD089584B58F7DFBCF79
:10079000809190008F7780939000089580919000D1
:1007A0008F7DF9CF80919000877FF5CF8091C00039
:1007B0008F778093C00008958091C0008F7DF9CF1E
:1007C0008091C200877F8093C20008951F93CF93CA
:1007D000DF93282F30E0F901EE51FE4F8491F901AB
:1007E000ED53FE4FD491F901EC55FE4FC491CC234B
:1007F000A9F0162F81110E949A03EC2FF0E0EE0F62
:10080000FF1FEC5EFE4FA591B4918FB7F894EC9169
:10081000111108C0D095DE23DC938FBFDF91CF91FB
:100820001F910895DE2BF8CFCF93DF9390E0FC016A
:10083000ED53FE4F24918C559E4FFC0184918823EB
:10084000D1F090E0880F991FFC01EA5FFE4FA5915F
:10085000B491FC01EC5EFE4FC591D491623071F40D
:100860009FB7F8943C91822F809583238C93E881E5
:100870002E2B28839FBFDF91CF9108958FB7F894D7
:10088000EC912E2B2C938FBFF6CFCF93DF93EC01FF
:1008900061E089E00E941404209731F460E089E06F
:1008A000DF91CF910C94E603CF3FD10511F461E0C5
:1008B000F6CFEBEEF1E0E491E150EF3008F07EC0CE
:1008C000F0E0EB59FB4F0C94721C74047B04800421
:1008D0008A049404DE04DE04DE049E04A804B20448
:1008E000BC04C904DE04D10484B5806884BDC7BDDE
:1008F000DF91CF91089584B5806284BDC8BDF8CFE3
:1009000080918000806880938000D0938900C0939C
:100910008800EECF80918000806280938000D09329
:100920008B00C0938A00E4CF809180008860809320
:100930008000D0938D00C0938C00DACF809190001E
:10094000806880939000D0939900C0939800D0CF96
:1009500080919000806280939000D0939B00C09320
:100960009A00C6CF80919000886080939000D093C9
:100970009D00C0939C00BCCF8091C0008068809394
:10098000C0008091C0008F7B8093C000C093CF00D7
:10099000AFCF8091C00080628093C000C093D00030
:1009A000A7CF8091C20088608093C2008091C2006E
:1009B0008B7F8093C200C093D2009ACFC038D105FC
:1009C0000CF075CF6BCF3FB7F89480916303909193
:1009D0006403A0916503B091660326B5A89B05C08A
:1009E0002F3F19F00196A11DB11D3FBFBA2FA92FAE
:1009F000982F8827BC01CD01620F711D811D911DAB
:100A000042E0660F771F881F991F4A95D1F7089516
:100A10008F929F92AF92BF92CF92DF92EF92FF920E
:100A20004B015C010E94E3046B017C010E94E30422
:100A30006C197D098E099F09683E734081059105F7
:100A4000A8F321E0821A9108A108B10888EEC80E27
:100A500083E0D81EE11CF11C81149104A104B104AF
:100A600029F7FF90EF90DF90CF90BF90AF909F90CD
:100A70008F9008958F929F92AF92BF92CF92DF9204
:100A8000EF92FF920F931F93CF93DF936C017B0143
:100A90008A0180910B01882309F45CC08091E203F4
:100AA000882309F457C080916D0380FF05C08091B1
:100AB000E00082608093E000E801B12C8AEFA82E6C
:100AC00093E0892E2AE3922E209711F4BB20D9F1CE
:100AD0000E94570181110AC0AA94AA20D9F161E0AD
:100AE00070E080E090E00E940805EECF8C171D06B4
:100AF00011F00CF08C2F9FB7F8948092E9002091B0
:100B0000E80025FD02C09FBFDFCF282F30E0C21BC9
:100B1000D30BF701815020F041914093F100FACFBF
:100B2000E20EF31EBB2021F09092E800B12CEBCF37
:100B30008091E80085FDE7CF9092E800BB24B39454
:100B4000209709F3F3CF5D9884E680936C03101629
:100B500011063CF081E090E0F6019383828310E07F
:100B600000E0C801DF91CF911F910F91FF90EF90AE
:100B7000DF90CF90BF90AF909F908F9008952FB748
:100B8000F89460915F03709160038091610390918C
:100B900062032FBF089520911B03260F3327331FB5
:100BA00021323105ECF420910F04FC0190E080E04B
:100BB000243069F082E00895A0911B032191AC01DB
:100BC00045505D4FA40FB52FB11D2C93019686178C
:100BD00098F380911B03680F60931B0380E00895D6
:100BE00081E0089510920F0481E080930E0410922A
:100BF000E90361E082E00E94E60361E083E00E9495
:100C0000E603E9EBF0E080818E7F808380818D7F39
:100C1000808388E48093B80085E48093BC000895C5
:100C20001092E8031092E703109216041092380411
:100C30000E94F2058BE291E09093E6038093E50336
:100C40008CE291E09093E4038093E3030895CF93C3
:100C5000DF9391E09093FA028823B9F0C091B80035
:100C6000D091BA008091BC008A7B8093BC0060E088
:100C700082E00E94E60360E083E00E94E6030E94B7
:100C8000F205D093BA00C093B800DF91CF910895D8
:100C90008F929F92AF92BF92CF92DF92EF92FF928C
:100CA0000F931F93CF93DF93D0913804D13208F084
:100CB000D7C0182FC09137040E94E3046B017C0158
:100CC00080910F0481116BC082E080930F04109318
:100CD0000E048FEF80930D0410920C04D0930B043C
:100CE000A7E1B4E0EBEEF3E080E0D81391C01092FE
:100CF000EA038091EA03CC0FC82BC093EA038091EA
:100D0000E903813009F088C01092E9030E94E304EE
:100D10006B017C018091EA038093BB0080911104F8
:100D200090911204A0911304B0911404892B8A2B82
:100D30008B2BA1F00E94E304009111041091120486
:100D400020911304309114046C197D098E099F09B8
:100D5000061717072807390708F442C08091BC001E
:100D600083FDD8CF85EC8093BC000E94E3046B0127
:100D70007C0180910F04823009F450C080910D04F1
:100D80008F3F09F46FC080910D04803209F46CC06C
:100D900080910D04803309F469C084E026C08091FD
:100DA000110490911204A0911304B0911404892BA2
:100DB0008A2B8B2B09F484CF0E94E30480901104CA
:100DC00090901204A0901304B09014046C197D0943
:100DD0008E099F0986169706A806B90608F070CFF7
:100DE000809110040E94270685E01092160410924C
:100DF000380410921504DF91CF911F910F91FF904D
:100E0000EF90DF90CF90BF90AF909F908F9008951C
:100E10009D9191938F5F69CF85EEA5CF809111044D
:100E200090911204A0911304B0911404892B8A2B81
:100E30008B2B09F49ECF0E94E304009111041091C2
:100E4000120420911304309114046C197D098E0949
:100E50009F09061717072807390708F08ACFC0CF60
:100E600081E0C3CF80E0C1CF82E0BFCF83E0BDCFC0
:100E7000CF93DF93EC018B818823A1F0888191E0EF
:100E8000909315048093370410921604109238043E
:100E900081E00E94480691E0811190E0892FDF9166
:100EA000CF9108950E94100681E08B83CE010E94AD
:100EB0003807982F8111E2CFF1CF0895E091E80330
:100EC0008091E703E81730F4F0E0E25CFC4F8081AA
:100ED00090E008958FEF9FEF08959091E80380913F
:100EE000E7032FEF3FEF981748F4E92FF0E0E25CBB
:100EF000FC4F208130E09F5F9093E803C901089583
:100F00008091E7039091E803891B990B0895CF9294
:100F1000DF92EF92FF920F931F93CF93DF937C01A9
:100F2000CB018A0120911504222389F0EB016B018A
:100F3000C40ED51ECC15DD0569F06991D701ED9180
:100F4000FC910190F081E02DC7010995F3CF642F4A
:100F50000E94CB05C801DF91CF911F910F91FF90A7
:100F6000EF90DF90CF900895CF93DF931F92CDB78E
:100F7000DEB76983209115042223F9F0209138040B
:100F8000203258F021E030E0FC013383228390E0EE
:100F900080E00F90DF91CF91089580911604E82FA3
:100FA000F0E0E95EFB4F998190838F5F8093160498
:100FB0008093380481E090E0ECCF61E0CE010196AF
:100FC0000E94CB05F7CFCF93DF93EC01DB014AE022
:100FD000E881F981908190539A30C0F48D919C9171
:100FE0001197489F9001499F300D112411963C9311
:100FF0002E93819120533109280F311D87FD3A9599
:1010000011963C932E93F983E883E2CFDF91CF9141
:101010000895DC01ED91FC9111979F012E5F3F4FE8
:101020002D933C93808191810895CF92DF92EF922E
:10103000FF920F931F93CF93DF936C017B0110E01E
:1010400000E0D0E0C0E0D6011296ED91FC91E00FF7
:10105000F11F6491662369F0D701ED91FC91019035
:10106000F081E02DC7010995C80FD91F0F5F1F4FF1
:10107000EACFCE01DF91CF911F910F91FF90EF90BA
:10108000DF90CF900895DC011496ED91FC911597B7
:1010900016968D919C9117979C012F5F3F4F179645
:1010A0003C932E931697E80FF91F608381E090E040
:1010B000089591E09093150490E79093370410926F
:1010C00016041092380461E070E001C0660F8A9542
:1010D000EAF785E594E00E94B40781E00E944806A3
:1010E0006AEF70E080E090E00C940805682F8AE0D9
:1010F0000E94E6030E94BF0568577C4E8F4F9F4FAA
:1011000060937C0370937D0380937E0390937F03B1
:101110000895DC0114968D919C91DC01ED91FC9178
:101120000190F081E02D0994089590E080E0089509
:10113000CF93DF93DC0114962D913C912417350752
:1011400010F490E01EC0EA01FC01818192812081AF
:1011500031E0309315042093370410921604109256
:101160003804DC01ED91FC910280F381E02D0995BA
:10117000C817D90731F781E00E94480691E0811134
:10118000E0CF892FDF91CF9108952F923F924F9218
:101190005F926F927F928F929F92AF92BF92CF9207
:1011A000DF92EF92FF920F931F93CF93DF93CDB710
:1011B000DEB72C970FB6F894DEBF0FBECDBF8C0103
:1011C000CE0101964C018AE0D4011D928A95E9F77F
:1011D000F80182859385A485B585892B8A2B8B2B75
:1011E00009F442C00E94BF05D8011A96CD90DD9047
:1011F000ED90FC901D97C616D706E806F90650F547
:101200000E94BF05F801C284D384E484F5846C197C
:101210007D098E099F09603D77408105910520F584
:1012200080E02C960FB6F894DEBF0FBECDBFDF91E5
:10123000CF911F910F91FF90EF90DF90CF90BF90D3
:10124000AF909F908F907F906F905F904F903F9066
:101250002F9008950E94BF05D8011A966D937D9333
:101260008D939C931D97DCCF0E94BF05F801628788
:101270007387848795874AE050E0B401808191812B
:101280000E94980883E089831A8284E08B8343E07C
:1012900050E0B401D8018D919C910E949808F8010A
:1012A0000190F081E02DFC87EB87B12CA12C68E048
:1012B000262E312CAB85BC8514968D919C916101B5
:1012C000CA18DB088C159D0508F46C01EB85FC85BC
:1012D000E0800E94E3042B013C0180910F04811106
:1012E00073C0FC2CF0E2FC1510F450E2F52E21E066
:1012F00020930F04C1018C199D09A816B90608F4A2
:1013000020E020930E048FEF80930D0410920C04C4
:101310008F0D80930B0491E09093EA038091EA0390
:10132000EE0CE82AE092EA038091E903813009F0AB
:1013300092C01092E9030E94E3042B013C018091CA
:10134000EA038093BB008091110490911204A09154
:101350001304B0911404892B8A2B8B2BA1F00E94CB
:10136000E304209111043091120440911304509130
:101370001404641975098609970926173707480761
:10138000590708F442C08091BC0083FDD8CFA5EC7A
:10139000A093BC000E94E3042B013C0180910F0448
:1013A000813009F45CC080910C048F1510F4F0902A
:1013B0000C04ABEEB3E0EEE3F3E080E08F1551F107
:1013C0009D9191938F5FFACF8091110490911204B7
:1013D000A0911304B0911404892B8A2B8B2B09F450
:1013E0007CCF0E94E30420911104309112044091BB
:1013F0001304509114046419750986099709261776
:1014000037074807590708F068CF809110040E94F9
:101410002706F12C1092E803F092E703FC141D0458
:1014200009F046C07401EA0CFB1C3701C70186199C
:1014300097098C159D05A8F5EB85FC858181928126
:10144000DC01ED91FC910284F385E02D0995F70113
:1014500081937F01EBCFB5EEB093BC009BCF809121
:10146000110490911204A0911304B0911404892BDB
:101470008A2B8B2B09F492CF0E94E3042091110454
:1014800030911204409113045091140464197509A9
:1014900086099709261737074807590708F07ECFAE
:1014A000B4CFAC0CBD1CF8E0AF16B10408F402CF09
:1014B0008981833009F0B4CE8A81843009F0B0CEBE
:1014C0006B8170E090E080E00E94A21A20E030E0A2
:1014D00040E853E40E94A91B6B017C016C8170E021
:1014E00090E080E00E94A41A9B01AC01C701B60104
:1014F0000E94901920E030E040E251E40E94011A7D
:10150000D80112966D937D938D939C931597FD80D2
:101510006F2D6F7770E090E080E00E94A41A20E0C9
:1015200030E040E853E40E94A91B4B015C016E814E
:1015300070E090E080E00E94A41A9B01AC01C5011C
:10154000B4010E94901920E030E040E251E40E9492
:10155000011A2F2D30E0220F232F221F330B232BB4
:1015600039F4F801668377838087918781E059CECB
:10157000AB01BC017058D80116964D935D936D93E5
:101580007C931997F3CF0F931F93CF93DF93EC01C5
:10159000088119810E94100681E0F8018383C80147
:1015A0000E943807CE01DF91CF911F910F910C94CB
:1015B000C508FB0101900020E9F73197AF01461BF8
:1015C000570BDC01ED91FC910280F381E02D099431
:1015D0008F929F92AF92BF92EF92FF920F931F93C1
:1015E000CF93DF93CDB7DEB7A1970FB6F894DEBFE8
:1015F0000FBECDBF7C01FA01CB0119A2223008F445
:101600002AE08E010F5D1F4F822E912CB12CA12C50
:10161000BF01A50194010E94501CF901CA016A3062
:101620000CF5605DD8016E938D01232B242B252BA7
:1016300079F790E080E0109721F0BD01C7010E948A
:10164000D90AA1960FB6F894DEBF0FBECDBFDF91C9
:10165000CF911F910F91FF90EF90BF90AF909F900F
:101660008F900895695CDECFCF92DF92EF92FF9268
:101670000F931F93CF93DF9377FF1DC06A017B0108
:10168000EC016DE20E9443088C0144275527BA0102
:101690004C195D096E097F092AE0CE010E94E80A13
:1016A000800F911FDF91CF911F910F91FF90EF90CD
:1016B000DF90CF9008952AE0DF91CF911F910F9195
:1016C000FF90EF90DF90CF900C94E80A85ED809327
:1016D000BC008091110490911204A0911304B09168
:1016E00014040796A11DB11D23E0B695A795979503
:1016F00087952A95D1F72091BC0024FD03C0109254
:101700000F04089540911104509112046091130444
:1017100070911404452B462B472B69F30097A105C4
:10172000B10541F02AE22A95F1F700C00197A1091D
:10173000B109E1CF809110040C9427062F923F92BB
:101740004F925F926F927F928F929F92AF92BF92D1
:10175000CF92DF92EF92FF920F931F93CF93DF937D
:10176000CDB7DEB7E2970FB6F894DEBF0FBECDBFA0
:101770002996EEACFFAC2997CE01855B9F4F9AABC3
:1017800089AB2B968EAD9FAD2B9798AB8FA710E0B2
:10179000EFA5F8A96081662309F433C2653229F008
:1017A000C7010E9443081F5F0BC0CF01019698AB91
:1017B0008FA71EA61DA68181811108C0F8ABEFA7D7
:1017C0008FA598A9019698AB8FA7E2CF853211F427
:1017D00065E2E6CF00E08D3221F43296F8ABEFA758
:1017E00001E0EFA5F8A98081803321F43196F8ABB0
:1017F000EFA70260EFA5F8A980818A3209F062C0E4
:101800003196F8ABEFA7CE01C1960E9409089EA7BA
:101810008DA790E3D92E01FD02C080E2D82E21E0F1
:1018200030E02C0F3D1F38A72FA31AA619A61EA221
:101830001DA285E491E09CA38BA31CA61BA6EFA58B
:10184000F8A980818E3251F43196F8ABEFA7BE0132
:10185000655D7F4FCE018F960E94E307EFA5F8A943
:101860008081B12C8C3629F43196F8ABEFA7BB24DC
:10187000B394EFA5F8A98081833761F5CE01C196B5
:101880000E940908FC0101900020E9F73197E81B4C
:10189000F90B98A78FA3FAA7E9A7A9A4BAA48DA5C5
:1018A0009EA5A816B90608F484C11EA61DA600FDB3
:1018B00089C10DA5015008F481C16D2DC7010E9499
:1018C0004308F8CFBE01635D7F4FCE018F960E9423
:1018D000E3079FCF803781F4CE01C1960E940908AB
:1018E0002FE331E03A8F298F9C8F8B8FB701CE0188
:1018F00049960E94150864CF8237D1F4CDA4DEA4A6
:10190000CE01C1960E9409089E8F8D8FD8A2CF8EDE
:101910001C8E1B8E8BE291E09A8F898F29E331E038
:101920003AA329A3B701CE0149960E94311348CFAB
:101930008E36F1F4CE01C1960E9409086C018DA586
:101940009EA59C01215031093EA72DA7892B09F4A2
:1019500037CFBB2041F0C114D10489F3B601C701D0
:101960000E94D90AECCF6C2DC7010E944308E7CF33
:10197000843611F08936D1F4BB2079F0E9A9FAA9AF
:10198000CF0104969AAB89AB40815181628173810A
:10199000CE0183960E94340B80CFCE01C1960E9467
:1019A0000908AC01990F660B770BF2CF8537D1F49C
:1019B000E9A9FAA9CF01BB2069F004969AAB89ABDB
:1019C00040815181628173812AE0CE0183960E9419
:1019D000E80A63CF02969AAB89AB4081518170E0EF
:1019E00060E0F2CF863609F0B9C07BA4E9A9FAA974
:1019F000CF0104969AAB89AB80809180A280B3809E
:101A0000A5019401C501B4010E94161C63E871E0B0
:101A1000811126C014012501E89457F82FEF3FEFFC
:101A20004FE75FE7C201B1010E94161C81110CC093
:101A30002FEF3FEF4FE75FE7C201B1010E94FC19B2
:101A400067E871E0181664F02FEF3FEF4FE75FE4AF
:101A5000C501B4010E94541B18163CF46BE871E0F8
:101A6000CE0183960E94D90A18CF2FEF3FEF4FE7A0
:101A70005FECC501B4010E94FC1987FDEFCF20E0A7
:101A800030E0A901C501B4010E94FC1987FF09C01B
:101A90006DE2CE0183960E944308B7FAB094B7F87E
:101AA000B094C72C612C60E070E080E09FE3671485
:101AB00040F420E030E040E251E40E94011A6394D7
:101AC000F6CFA50194010E9490194B015C010E9480
:101AD000731A1B012C012AE0BC01A101CE018396DF
:101AE0000E94E80A772009F4D8CEC201B1010E9411
:101AF000A21A9B01AC01C501B4010E948F194B01D0
:101B00005C016EE2CE0183960E944308CA943FEFC7
:101B1000C31609F4C2CE20E030E040E251E4C50132
:101B2000B4010E94A91B2B013C010E94731A4B01B6
:101B3000B12CA12C2AE0B501A401CE0183960E940C
:101B4000E80AC501B4010E94A21A9B01AC01C301BD
:101B5000B2010E948F194B015C01D8CF8837B1F4D4
:101B6000E9A9FAA9CF01BB2049F004969AAB89AB49
:101B7000408151816281738120E127CF02969AAB27
:101B800089AB4081518170E060E0F6CF833609F087
:101B900084CECE01C1960E940908898381E090E03D
:101BA0008C0F9D1F98A78FA321E030E03AA729A7AB
:101BB00074CE8A199B099EA78DA779CE8DA5180F83
:101BC0001EA61DA6EFA1F8A589A59AA59C012F5FC9
:101BD0003F4F3AA729A7E80FF91F10826FA178A5F8
:101BE000A501C7010E940E02C82E0DA5015028F0C4
:101BF0006D2DC7010E944308F9CF8DA5180F1C0D4C
:101C0000DFCD812F90E0E2960FB6F894DEBF0FBED5
:101C1000CDBFDF91CF911F910F91FF90EF90DF909B
:101C2000CF90BF90AF909F908F907F906F905F907C
:101C30004F903F902F900895FF920F931F93CF9353
:101C4000DF93EC01F62E0C811D818E819F81080FA0
:101C5000191FC8010E9479198F1521F06F2DC80135
:101C60000E9481198E819F8101969F838E8381E0DE
:101C700090E0DF91CF911F910F91FF900895FF9217
:101C80000F931F93CF93DF93CDB7DEB7C055D10924
:101C90000FB6F894DEBF0FBECDBF8E010F5F1F4F92
:101CA00080E5D8011D928A95E9F741E853E0FA01F1
:101CB00001900020E9F7AF014258534040355105EB
:101CC00010F04FE450E061E873E0C8010E949D1DF0
:101CD000F0900B016AE070E080E090E00E9408055F
:101CE000FF2059F0B8018CE095E00E94D90A6FE816
:101CF00071E08CE095E00E94D90AB8018FE694E08B
:101D00000E94D90A6FE871E08FE694E00E94D90A38
:101D1000E1E8F3E080E5DF011D928A95E9F7C05B19
:101D2000DF4F0FB6F894DEBF0FBECDBFDF91CF916E
:101D30001F910F91FF9008951F920F920FB60F926F
:101D400011248F939F938091E1009091E100937F04
:101D50009093E10083FF0FC01092E90091E090930F
:101D6000EB001092EC0092E39093ED001092E203EE
:101D700098E09093F00082FF22C093E09093E900F6
:101D80009091F200992319F09AE39093E8009091D2
:101D90006C03992341F090916C03915090936C03E4
:101DA000911101C05D9A9091E103992341F09091C6
:101DB000E10391509093E103911101C0289A84FFAF
:101DC00018C08091E2008E7E81608093E200809155
:101DD000E1008F7E8093E10080916D038E7E8061B3
:101DE00080936D039F918F910F900FBE0F901F9066
:101DF000189580FFF7CF8091E2008E7E80618093FE
:101E0000E2008091E1008E7E8093E10080916D037D
:101E10008E7E8160E5CF1F920F920FB60F92112434
:101E2000CF92DF92EF92FF920F931F932F933F93E6
:101E30004F935F936F937F938F939F93AF93BF93D2
:101E4000EF93FF93CF93DF93CDB7DEB76C97DEBFF1
:101E5000CDBF1092E9008091E80083FF25C068E0C3
:101E6000CE0145960E94010282EF8093E8008D89A1
:101E700087FF39C09091E80090FFFCCF982F9076B3
:101E800009F034C19E894F89588D2F89F88C9111A2
:101E900031C0803861F580916E038093F10010921B
:101EA000F1008EEF8093E8006C960FB6F894DEBFD9
:101EB0000FBECDBFDF91CF91FF91EF91BF91AF9159
:101EC0009F918F917F916F915F914F913F912F9152
:101ED0001F910F91FF90EF90DF90CF900F900FBE6A
:101EE0000F901F9018959EEF9093E800C7CF109227
:101EF000F100D5CF913059F48111D3CF4130510544
:101F000081F680916E038D7F80936E03CACF9330EC
:101F100049F48111C6CF4130510519F680916E0305
:101F20008260F2CF953041F48091E80080FFFCCFD1
:101F300020682093E300B5CF963009F0A9C00B8D3F
:101F40001C8D22E01092E90010926A03109269033E
:101F5000F2122EC010926803109267030E94D00103
:101F60001F8299E09983FA8291E09E8390EA988794
:101F70009AEF99872091690330916A03275F3F4F59
:101F80003C832B838D831092E90010926A03109298
:101F90006903109368030093670349E050E0BE01B2
:101FA0006F5F7F4F80E00E94AA010E94D00179CF2D
:101FB00010936803009367030E946801DC01129686
:101FC0000D911C910115110509F451C1D801ED9134
:101FD000FC910480F581E02DBE016B5E7F4FC8014E
:101FE0000995009709F03EC1F80100851185EACFF7
:101FF000F3E0FF120EC08F89882309F440C08230BD
:1020000061F440E862E183E891E00E94FE128111F0
:1020100048CF81E28093EB0047CF813029F440E83C
:1020200068E08AE791E0F1CF833099F70E94680178
:10203000DC011296ED90FC908E010F5F1F4F68013E
:10204000E114F10479F0D701ED91FC910680F7815C
:10205000E02DB801C7010995080F111DF701E084B3
:10206000F184EECFD8011C92F60101900020E9F72F
:102070003197BF016C197D0940E0C601C6CF64E607
:1020800071E0FB01449150E080E80E94AA0109CF71
:10209000973009F4BECF983021F481E08093F100AD
:1020A00000CF993009F0FDCE837009F0B2CFE9E19D
:1020B000F1E081E031E096E32191222371F08093F9
:1020C000E9003093EB00DF0111972C912093EC0095
:1020D0009093ED008F5F873079F78EE78093EA0069
:1020E0001092EA008F898093E203DBCE8B8D9C8D6A
:1020F0001092E90010926A031092690390936803AA
:1021000080936703898D811192C08E899D89913A50
:1021100049F4813209F07DCF47E050E064E071E09E
:1021200080E0B3CF913209F074CF833269F48F89A4
:10213000988DB0E0A0E08093000190930101A093FE
:102140000201B0930301ADCE803269F48091E800C2
:1021500082FFFCCF67E084E091E00E9401028BEFF8
:102160008093E8009ECE823209F09BCE8F898093C7
:102170000B01EEEFFFE7859194918B3F9C4D51F160
:10218000E0E0F8E08091040190910501A091060142
:10219000B0910701803B9440A105B105F1F4809115
:1021A0000B0180FD1AC0EE3F8AE0F80789F587E74A
:1021B00097E7918380838091600080936B0388E12F
:1021C0009BE00FB6F894A895809360000FBE9093A3
:1021D000600067CEEEEFFAE0D5CF8081918187373E
:1021E000974709F05ECEA895809160008861809342
:1021F000600080916B0380936000EE3F2AE0F2075D
:1022000089F08091FE0A9091FF0A9183808349CEE4
:10221000808191818737980751F29093FF0A8093CC
:10222000FE0AC5CF1092FF0A1092FE0A3ACE0E9413
:102230006801DC0112960D911C910115110509F43C
:10224000E8CED801ED91FC910190F081E02DBE0126
:102250006B5E7F4FC8010995811123CEF80100857F
:102260001185EBCF181619060CF41BCED2CEF1E077
:10227000FF12BECE68E671E004CF1F920F920FB638
:102280000F9211242F933F934F935F936F937F93FC
:102290008F939F93AF93BF93EF93FF938FE694E059
:1022A0000E948C02FF91EF91BF91AF919F918F910E
:1022B0007F916F915F914F913F912F910F900FBE42
:1022C0000F901F9018951F920F920FB60F92112426
:1022D0002F938F939F93EF93FF93E0917F04F0915F
:1022E00080048081E0918504F091860482FD1BC00A
:1022F0009081809188048F5F8F7320918904821769
:1023000041F0E0918804F0E0E159FB4F958F809314
:102310008804FF91EF919F918F912F910F900FBEA5
:102320000F901F9018958081F4CF1F920F920FB6D7
:102330000F9211242F933F938F939F93AF93BF934B
:1023400080915F0390916003A0916103B09162035B
:1023500030915E0323E0230F2D3758F50196A11D20
:10236000B11D20935E0380935F0390936003A0935D
:102370006103B09362038091630390916403A09121
:102380006503B09166030196A11DB11D809363039F
:1023900090936403A0936503B0936603BF91AF91DC
:1023A0009F918F913F912F910F900FBE0F901F9093
:1023B000189526E8230F0296A11DB11DD2CF1F92BA
:1023C0000F920FB60F9211242F933F934F935F9369
:1023D0006F937F938F939F93AF93BF93EF93FF93ED
:1023E0008091B900887F803609F44AC0F0F58832C0
:1023F00009F4A7C018F5803109F49BC0B8F488230C
:1024000009F4F9C0883009F494C0FF91EF91BF91AD
:10241000AF919F918F917F916F915F914F913F917C
:102420002F910F900FBE0F901F901895883109F4CF
:1024300088C0803251F780930D0414C0803409F4B1
:102440009DC040F48033B9F38833F9F680930D04CE
:1024500085ECB0C0803509F485C0883509F496C094
:10246000883499F60E94660BD0CF883909F48CC065
:1024700038F5883729F050F4883611F0803729F67E
:1024800083E080930F0410923D0357C0883809F40D
:102490007BC0803919F0803809F0B7CF80913D03B7
:1024A000803208F071C0E0913D0381E08E0F80938F
:1024B0003D038091BB00F0E0E35EFC4F80833DC0B4
:1024C000803B39F0E0F4803A09F479C0883A09F0A9
:1024D0009CCF84E080930F0410921C0310921B0386
:1024E000E091E503F091E603099580911B038111CA
:1024F0000FC081E080931B031092FB0209C0803C57
:1025000009F4A6CF883C09F4A3CF883B09F07DCF1E
:10251000E0911C0381E08E0F80931C03F0E0E550F6
:10252000FD4F80818093BB0090911C0380911B0321
:1025300029C08091EA038093BB0085EC8093BC00A6
:1025400064CF90910C0480910B04981758F5E0919A
:102550000C0481E08E0F80930C04F0E0E551FC4FF9
:102560008081E9CFE0910C0481E08E0F80930C0410
:102570008091BB00F0E0E551FC4F808390910C040A
:1025800080910B049817C8F285E8D8CFE0910C042D
:1025900081E08E0F80930C048091BB00F0E0E55148
:1025A000FC4F808380910E0481115CCF81E0809389
:1025B000E90384EA8093BC0010920F0426CF85ECD7
:1025C0008093BC0010920F0480913D03803230F460
:1025D000E0913D03F0E0E35EFC4F108260913D032B
:1025E00070E0E091E303F091E4038DE193E009955D
:1025F00010923D030ACF10920D0434CFEF92FF9258
:102600000F931F93CF93DF93F82E192FE62E042FED
:1026100081E0860F880F0E947C0183E00E947C018C
:10262000CF2DD12FEC0EFD2EF11CCE15DF05B9F00C
:1026300007FF13C0FE0184910E947C01182F80E0E7
:102640000E947C01812321968111EFCFDF91CF91F0
:102650001F910F91FF90EF9008958881EDCF81E059
:10266000F5CFEF92FF920F931F93CF93DF937C01EF
:102670008B01D0E0C0E0D70116968D919C91179701
:10268000C817D90790F414968D919C918C0F9D1FBB
:102690000E947919D801ED91FC910190F081E02D13
:1026A000682FC80109952196E6CFDF91CF911F9140
:1026B0000F91FF90EF90089508970C943113FF92BB
:1026C0000F931F93CF93DF93EFE6F4E01382128210
:1026D00088EE93E0A0E0B0E084839583A683B7837F
:1026E00021E531E0318320832DEC30E035872487EC
:1026F0002CEC30E03787268728EC30E0318B208BBC
:1027000029EC30E0338B228B2AEC30E0358B248BA4
:102710002EEC30E0378B268B118E128E138E148E9A
:10272000ECE0F5E01382128284839583A683B7835D
:1027300023E631E0318320832FEF3FEF3587248775
:10274000C5E5D4E01B821A828C839D83AE83BF8350
:1027500085E791E09983888386E090E00E94781C69
:10276000FC018CE5F82EF082D283C183138200E253
:1027700010E015830483A1E6B4E01196FC93EE9378
:102780001A961D921D921D921C921D9786E090E054
:102790000E94781CFC01F082D283C18313821583CE
:1027A0000483A7E4B4E011969C938E931A961D922D
:1027B0001D921D921C921D9786E090E00E94781C4D
:1027C000FC01F082D283C183138215830483A9E3C1
:1027D000B4E011969C938E931A961D921D921D92B1
:1027E0001C921D97DF91CF911F910F91FF9008953B
:1027F000CF93DF93CDB7DEB7C954D1090FB6F894A4
:10280000DEBF0FBECDBF789484B5826084BD84B531
:10281000816084BD85B5826085BD85B5816085BDDB
:1028200080916E00816080936E0010928100809193
:10283000810082608093810080918100816080931B
:102840008100809180008160809380008091910060
:1028500082608093910080919100816080939100CB
:10286000809190008160809390008091C10084608D
:102870008093C1008091C10082608093C1008091EB
:10288000C10081608093C1008091C300816080930A
:10289000C3008091C00082608093C0008091C2001C
:1028A00081608093C20080917A00846080937A0076
:1028B00080917A00826080937A0080917A008160B2
:1028C00080937A0080917A00806880937A001092D9
:1028D000E20310926E0310926D038091D700816025
:1028E0008093D70080EA8093D80089B5806189BD44
:1028F00089B5826089BD09B400FEFDCF61E070E05A
:1029000080E090E00E9408058091D8008F7C806173
:102910008093D8008091E000807F8093E0008091D8
:10292000E1008E7E8093E1008DE08093E200559A75
:10293000209A8FEF9FEF9093190580931805E091EF
:102940007F04F091800482E08083E0917B04F09129
:102950007C041082E0917D04F0917E048FEC8083F2
:1029600010928704E0918304F091840486E08083D0
:10297000E0918104F0918204808180618083E09104
:102980008104F0918204808188608083E0918104D9
:10299000F0918204808180688083E0918104F091CD
:1029A000820480818F7D808360ED77E080E090E01D
:1029B0000E94080561E08AE00E94140461E089E059
:1029C0000E94140461E088E00E94140480E890E012
:1029D0000E94450461E088E00E94E60361E08AE02D
:1029E0000E94E60362E085E00E941404E7EEF1E055
:1029F0008491E8ECF1E00491E9EAF1E0149111230B
:102A000079F081110E949A03E12FF0E0EE0FFF1F91
:102A1000EA56FE4FA591B491EC910E2382E009F4A1
:102A200081E08093800381E893E09E838D83188604
:102A30001F821C821B8285E491E09A8389838091A6
:102A400080031F928F9382E991E09F938F9387E990
:102A500091E09F938F93CE0101967C019F938F937A
:102A60000E949E0B0E943F0E0E94100620E7622EDD
:102A700023E0722E0FB6F894DEBF0FBECDBF3FE14C
:102A8000C32E31E0D32E01E010E041E8A42E43E054
:102A9000B42E55E4852E51E0952E68EB462E61E06C
:102AA000562E302E212EF30111923F0183E0800F2C
:102AB0000E94590864EF71E080E090E00E940805F0
:102AC000F2E00F1709F4A7C123E0021709F4AAC125
:102AD00081E694E00E94C30A80937003D6018C9132
:102AE00011969C91B2E0CB0ED11CF301319720815D
:102AF000BE82AD8218861F821C821B829A828982C6
:102B0000222309F496C19F938F932F923F925F9255
:102B10004F92FF92EF920E949E0B0E943F0E0FB6C3
:102B2000F894DEBF0FBECDBF68EE73E080E090E0AA
:102B30000E9408050F5F1F4F0430110509F0B1CF47
:102B400081E893E09E838D8318861F821C821B82FE
:102B500085E491E09A83898380E092E09F938F934C
:102B600086EB92E09F938F93FF92EF920E949E0BD1
:102B70000E943F0E60E088E00E94E6030E94BF05CD
:102B80006093740370937503809376039093770337
:102B900080E00E9476080F900F900F900F900F909A
:102BA0000F90CE0181969EA78DA79091D9029FAFDD
:102BB000A091DA022196AFAF2197B091DB02229665
:102BC000BFAF2297E091DC022396EFAF23972796C1
:102BD0009FAF27972896AFAF28972996BFAF299721
:102BE0002A96EFAF2A97CE01899698AB8FA70E94BD
:102BF000BF050091D1031091D2032091D3033091EE
:102C0000D403061717072807390708F09CC2D90113
:102C1000C801805A9541AF4FBF4F8093D103909325
:102C2000D203A093D303B093D403DE0111966D01B8
:102C30001E01B1E12B0E311C8FE1A82E81E0B82ED0
:102C400088248394912C1AAE83E0880D0E94590841
:102C500068EC70E080E090E00E940805182D9EAEC0
:102C6000123009F4EFC0133009F40BC181E694E08F
:102C70000E94C508882309F423C1809167049091BC
:102C80006804A0916904B0916A048D8B9E8BAF8B10
:102C9000B88F8091630490916404A0916504B09111
:102CA00066048D839E83AF83B887F6017481658146
:102CB00096818781D1011496BC91BEABF101F5815B
:102CC0002496FFAF2497D1011696BC912596BFAFED
:102CD0002597F101F7812696FFAF269720E030E097
:102CE00048EC52E47DAB6BAF9CAF8DAF672F7BADF3
:102CF000892F9DAD0E94011A0E94611B2B013C018E
:102D000023EC35EF4CE851E48EA989AB24960FAD46
:102D100024972596FFAC25972696EFAC2697682F2B
:102D2000702F8F2D9E2D0E94A91B6EAB7FAB88AF9D
:102D300099AF28EB3EE143E753E4B9A9F7016B2FC4
:102D4000702F8F2F9E2F0E9490199B01AC016EA9AE
:102D50007FA988AD99AD0E94011A20E030E040E8DB
:102D60005FE30E9490199B01AC01C301B2010E9474
:102D7000011A2B013C01A1E8B3E0BEA3ADA318A644
:102D80001FA21CA21BA2E5E4F1E0FAA3E9A328EB31
:102D90003EE143E753E40E94A91B6EAB7FAB88AFD3
:102DA00099AFA301920163EC75EF8CE891E40E9466
:102DB0008F199B01AC016EA97FA988AD99AD0E94C6
:102DC000011A9F938F937F936F93FDADFF932CAD6B
:102DD0002F938BAD8F939DA99F93EF92FF920F93AB
:102DE000A9A9AF93BEADBF931F93809180031F929B
:102DF0008F93E0E3F2E0FF93EF938EA58F939DA571
:102E00009F930E949E0B0E943F0E0FB6F894DEBF68
:102E10000FBECDBF82C087E494E00E94C30A8093B6
:102E200071035CCE89E394E00E94C30A809372032D
:102E300055CE9F938F932F923F928CEC91E09F936E
:102E40008F9367CE87E494E00E94C5088823C1F180
:102E500080914D0490914E04A0914F04B091500484
:102E6000898F9A8FAB8FBC8F8091490490914A04CF
:102E7000A0914B04B0914C0489879A87AB87BC879B
:102E800014CF89E394E00E94C5088823C9F080919B
:102E90003F0490914004A0914104B09142048D8F71
:102EA0009E8FAF8FB8A380913B0490913C04A0917A
:102EB0003D04B0913E048D879E87AF87B88BF5CED9
:102EC000E1E8F3E0FEA3EDA318A61FA21CA21BA23B
:102ED00085E491E09AA389A3D50111968C9111976D
:102EE0008F938C918F93BEADBF931F93809180037E
:102EF0001F928F93E6E1F2E0FF93EF938EA58F93FD
:102F00009DA59F930E949E0B0E943F0E0FB6F894C2
:102F1000DEBF0FBECDBFB1E0BAAFBFEF8B1A9B0AC9
:102F2000E2E0AE0EB11CF4E0CF0ED11C24E0220E84
:102F3000311C84E08816910409F086CE90918003BC
:102F40009DABAAADA11192C1B98CCA8CDB8CEC8C63
:102F5000AD8C1E8D0F8DF8A02A2D312F402F5F2DA7
:102F60006B2D7C2D8D2D9E2D0E94FC1987FF04C09A
:102F7000AB2C1C2D0D2DFE2C69847A848B849C84B3
:102F8000BD84CE84DF84E8882B2D3C2D4D2D5E2D15
:102F9000B301C4010E94541B181624F4B62CC72C8C
:102FA000D82CE92C2D803E808F80988420E030E062
:102FB00048EC52E4622D732D882D992D0E94011A40
:102FC0000E94611B2B013C0123EC35EF4CE851E4DE
:102FD0006A2D712F802F9F2D0E94A91B69AB7AABA0
:102FE0008BAB9CAB28EB3EE143E753E46A2D712F9A
:102FF000802F9F2D0E9490199B01AC0169A97AA98D
:103000008BA99CA90E94011A20E030E040E85FE310
:103010000E9490199B01AC01C301B2010E94011AE8
:103020002B013C0128EB3EE143E753E40E94A91B3E
:1030300069AB7AAB8BAB9CABA301920163EC75EFF0
:103040008CE891E40E948F199B01AC0169A97AA9CF
:103050008BA99CA90E94011A762E672E582E492E04
:1030600020E030E044E352E46B2D7C2D8D2D9E2D2D
:103070000E94541B18160CF0E7C020E030E040E23C
:1030800051E46A2D712F802F9F2D0E948F19D3013B
:10309000F2012B2F3A2F4F2F5E2F0E94541B181630
:1030A0000CF0D2C083E0E7E6F2E0DE0199960190F1
:1030B0000D928A95E1F7B1E0B9ABA1E8B3E0BEA308
:1030C000ADA318A61FA21CA21BA2E5E4F1E0FAA37F
:1030D000E9A3F8A9FF932FA52F934F925F926F92C8
:1030E0007F929F928F923F922F92FF920F931F9306
:1030F000AF921F928DA98F938AE692E09F938F9350
:103100009EA59F93ADA5AF930E949E0B0FB6F8941A
:10311000DEBF0FBECDBF0E943F0E89A90E94760878
:10312000FAAD80ED97E0A0E0B0E0F11104C088EEC8
:103130009DEFA0E0B0E080930E0190930F01A0936B
:103140001001B09311010E94BF0500917C03109102
:103150007D0320917E0330917F0306171707280710
:10316000390708F0B5C00E94BF050091780310919F
:10317000790320917A0330917B03061717072807FC
:103180003907F8F4D901C801805C9F4FAF4FBF4F9A
:103190008093780390937903A0937A03B0937B0391
:1031A00010910D01812F90E00E94450480910C0147
:1031B000180F10930D011850103F18F0819580934F
:1031C0000C010E94BF0500917403109175032091BA
:1031D000760330917703061717072807390738F564
:1031E00040910E0150910F016091100170911101F9
:1031F000D901C801840F951FA61FB71F80937403C0
:1032000090937503A0937603B093770340365A4E9C
:10321000610571052CF480917303882309F465C05E
:10322000109273036091730388E00E94E60380E0CC
:1032300090E0892B09F4DBCC0E947802882309F402
:10324000D6CC0E940000D3CC2796EFAD2797E9A7F4
:103250002896FFAD2897FAA729962FAD29972BA777
:103260002A968FAD2A978CA719AA27CFFFADF9A769
:1032700021962FAD21972AA722968FAD22978BA753
:1032800023969FAD23979CA7A1E8B3E0BEA3ADA36F
:1032900018A61FA21CA21BA2E5E4F1E0FAA3E9A371
:1032A000F8A9FF932FA52F931F928DA98F9389EBD8
:1032B00092E09F938F939EA59F93ADA5AF930E949D
:1032C0009E0B0FB6F894DEBF0FBECDBF19AA23CF59
:1032D00099A980EF911101C088E080930D01809140
:1032E0000D0190E00E9445046CCF81E08093730350
:1032F00099CFF999FECF92BD81BDF89A992780B5F3
:103300000895262FF999FECF1FBA92BD81BD20BD29
:103310000FB6F894FA9AF99A0FBE0196089550588C
:10332000BB27AA270E94A7190C941A1B0E940C1BEA
:1033300038F00E94131B20F039F49F3F19F426F453
:103340000C94091B0EF4E095E7FB0C94031BE92F8A
:103350000E942B1B58F3BA1762077307840795075F
:1033600020F079F4A6F50C944D1B0EF4E0950B2E8D
:10337000BA2FA02D0B01B90190010C01CA01A001C7
:103380001124FF27591B99F0593F50F4503E68F122
:103390001A16F040A22F232F342F4427585FF3CF63
:1033A000469537952795A795F0405395C9F77EF434
:1033B0001F16BA0B620B730B840BBAF09150A1F07D
:1033C000FF0FBB1F661F771F881FC2F70EC0BA0F03
:1033D000621F731F841F48F4879577956795B7958B
:1033E000F7959E3F08F0B0CF9395880F08F0992786
:1033F000EE0F9795879508950E94DF1A08F481E0F3
:1034000008950E94151A0C941A1B0E94131B58F061
:103410000E940C1B40F029F45F3F29F00C94031B21
:1034200051110C944E1B0C94091B0E942B1B68F32A
:103430009923B1F3552391F3951B550BBB27AA276D
:1034400062177307840738F09F5F5F4F220F331FA7
:10345000441FAA1FA9F335D00E2E3AF0E0E832D06F
:1034600091505040E695001CCAF72BD0FE2F29D072
:10347000660F771F881FBB1F261737074807AB0744
:10348000B0E809F0BB0B802DBF01FF2793585F4FB9
:103490003AF09E3F510578F00C94031B0C944E1BA0
:1034A0005F3FE4F3983ED4F3869577956795B7959B
:1034B000F7959F5FC9F7880F911D9695879597F9A6
:1034C0000895E1E0660F771F881FBB1F621773071F
:1034D0008407BA0720F0621B730B840BBA0BEE1F34
:1034E00088F7E09508950E94331B88F09F5798F065
:1034F000B92F9927B751B0F0E1F0660F771F881FF9
:10350000991F1AF0BA95C9F714C0B13091F00E9412
:103510004D1BB1E008950C944D1B672F782F882721
:10352000B85F39F0B93FCCF3869577956795B39539
:10353000D9F73EF490958095709561957F4F8F4FA8
:103540009F4F0895E89409C097FB3EF490958095AD
:10355000709561957F4F8F4F9F4F9923A9F0F92F59
:1035600096E9BB279395F695879577956795B795D7
:10357000F111F8CFFAF4BB0F11F460FF1BC06F5FBD
:103580007F4F8F4F9F4F16C0882311F096E911C0CF
:10359000772321F09EE8872F762F05C0662371F0F0
:1035A00096E8862F70E060E02AF09A95660F771F04
:1035B000881FDAF7880F9695879597F90895990FE0
:1035C0000008550FAA0BE0E8FEEF16161706E807ED
:1035D000F907C0F012161306E407F50798F0621B0E
:1035E000730B840B950B39F40A2661F0232B242BE3
:1035F000252B21F408950A2609F4A140A6958FEF02
:10360000811D811D089597F99F6780E870E060E053
:1036100008959FEF80EC089500240A94161617066B
:1036200018060906089500240A94121613061406B3
:1036300005060895092E0394000C11F4882352F016
:10364000BB0F40F4BF2B11F460FF04C06F5F7F4FCE
:103650008F4F9F4F089557FD9058440F551F59F0B5
:103660005F3F71F04795880F97FB991F61F09F3F6F
:1036700079F087950895121613061406551FF2CF98
:103680004695F1DF08C0161617061806991FF1CFE8
:1036900086957105610508940895E894BB2766270F
:1036A0007727CB0197F908950E94DF1A08F48FEF6E
:1036B000089516F00C941B1C0C94091B68940C9430
:1036C000031B0E94331BA8F39923C1F3AEF3DF93CE
:1036D000CF931F930F93FF92C92FDD2788232AF0E2
:1036E0002197660F771F881FDAF720E030E040E867
:1036F0005FEB9FE3883920F0803E38F021968F778A
:103700000E949019ECEAF0E004C00E949019E9EDE3
:10371000F0E00E94291C8B01BE01EC01FB2E6F57CB
:1037200071097595771F880B990B0E94A41A28E1DF
:1037300032E741E35FE30E94BC1BAF2D9801AE016D
:10374000FF900F911F91CF91DF910E94A7190C94C8
:103750001A1B0E94BC1B0C941A1B0E940C1B38F0F5
:103760000E94131B20F0952311F00C94031B0C9462
:10377000091B11240C944E1B0E942B1B70F3959F68
:10378000C1F3950F50E0551F629FF001729FBB2758
:10379000F00DB11D639FAA27F00DB11DAA1F649FF4
:1037A0006627B00DA11D661F829F2227B00DA11DA7
:1037B000621F739FB00DA11D621F839FA00D611D2D
:1037C000221F749F3327A00D611D231F849F600D4E
:1037D000211D822F762F6A2F11249F5750409AF077
:1037E000F1F088234AF0EE0FFF1FBB1F661F771F03
:1037F000881F91505040A9F79E3F510580F00C94CE
:10380000031B0C944E1B5F3FE4F3983ED4F3869564
:1038100077956795B795F795E7959F5FC1F7FE2B6D
:10382000880F911D9695879597F908950E94DF1A44
:10383000880B990B08959F3F31F0915020F48795A4
:1038400077956795B795880F911D9695879597F908
:103850000895DF93CF931F930F93FF92EF92DF9220
:103860007B018C01689406C0DA2EEF010E94BC1B1C
:10387000FE01E894A5912591359145915591A6F3C6
:10388000EF010E94A719FE019701A801DA9469F7D8
:10389000DF90EF90FF900F911F91CF91DF910895EE
:1038A000A1E21A2EAA1BBB1BFD010DC0AA1FBB1F44
:1038B000EE1FFF1FA217B307E407F50720F0A21BB6
:1038C000B30BE40BF50B661F771F881F991F1A9423
:1038D00069F760957095809590959B01AC01BD014D
:1038E000CF010895EE0FFF1F0590F491E02D09948C
:1038F0000F931F93CF93DF938230910510F482E0F2
:1039000090E0E0915E05F0915F0530E020E0B0E0EE
:10391000A0E0309799F42115310509F44AC0281B1D
:10392000390B24303105D8F58A819B8161157105E9
:1039300089F1FB0193838283FE0111C04081518193
:103940000281138148175907E0F04817590799F485
:10395000109761F012960C93129713961C9332965F
:10396000CF01DF91CF911F910F91089500935E05D4
:1039700010935F05F4CF2115310551F0421753071D
:1039800038F0A901DB019A01BD01DF01F801C1CFC7
:10399000EF01F9CF90935F0580935E05CDCFFE01D7
:1039A000E20FF31F819391932250310939832883C9
:1039B000D7CF20915C0530915D05232B41F42091F8
:1039C00014013091150130935D0520935C05209121
:1039D0001201309113012115310541F42DB73EB785
:1039E0004091160150911701241B350BE0915C05A5
:1039F000F0915D05E217F307A0F42E1B3F0B28178B
:103A0000390778F0AC014E5F5F4F2417350748F057
:103A10004E0F5F1F50935D0540935C05819391931A
:103A20009FCFF0E0E0E09CCFCF93DF930097E9F0E9
:103A3000FC01329713821282A0915E05B0915F055E
:103A4000ED0130E020E01097A1F420813181820F58
:103A5000931F20915C0530915D052817390709F007
:103A600061C0F0935D05E0935C05DF91CF9108950F
:103A7000EA01CE17DF07E8F54A815B819E01411517
:103A80005105B1F7E901FB83EA8349915991C40FCC
:103A9000D51FEC17FD0761F4808191810296840F98
:103AA000951FE90199838883828193819B838A830F
:103AB000F0E0E0E012968D919C9113970097B9F594
:103AC0002D913C911197CD010296820F931F209169
:103AD0005C0530915D052817390739F6309751F5A7
:103AE00010925F0510925E05B0935D05A0935C0592
:103AF000BCCFD383C28340815181840F951FC817E7
:103B0000D90761F44E5F5F4F88819981480F591F33
:103B1000518340838A819B81938382832115310560
:103B200009F0B0CFF0935F05E0935E059ECFFD01F5
:103B3000DC01C0CF13821282D7CFFB01DC014150E0
:103B4000504048F001900D920020C9F701C01D922D
:0C3B500041505040E0F70895F894FFCF7A
:103B5C00FFFFFFFF00E10000000000000880E8FD0F
:103B6C00000000006005800000C18081000000DDC5
:103B7C0002E602EC02F302000000001C0E0E02959D
:103B8C000894083113F8FF00005C130000000015C6
:103B9C00080000000043080E02950894080000007D
:103BAC0000AD020E023B02F9026C024A025E0200F8
:103BBC0000000019033A053A032F0380033E035C0F
:103BCC000300000000B407870795085D0780076DA8
:103BDC00075E076E616E00696E66006F7666000D9B
:103BEC000A00302E3932000A456E7669726F6469AC
:103BFC006E6765732025732C20436F6E7461696E3C
:103C0C0065722025640A0A0073656E736F72202535
:103C1C0064202D204F4B20282573290073656E736B
:103C2C006F72202564202D206E6F7420666F756E68
:103C3C00642C20636865636B20776972696E6720FA
:103C4C00262070756C6C75707321202825732900E3
:103C5C00456E7669726F64696E6765732073746103
:103C6C007274696E6700432564202D2053256420EF
:103C7C002D206D697373696E6720202825732900C8
:103C8C00432564202D20532564202D2054656D7010
:103C9C003A2025322E316643202048756D3A20207B
:103CAC0025322E31662525202044657770743A2004
:103CBC0025322E316643006F6E00432564202D2083
:103CCC004D696E2074656D7020696E7465726E3A04
:103CDC002025322E3166432C2068756D6964206571
:103CEC00787465726E3A2025322E316625252C208B
:103CFC002D3E2064657770743A2025322E31664350
:103D0C002C2066616E20257300432564202D2053E2
:103D1C00656E736F722072656164206572726F726A
:103D2C002C2066616E202573006F666600657874C2
:103D3C0065726E616C00696E6C6574006F75746C85
:0A3D4C006574007370617265000079
:00000001FF
