:100000000C9401010C9429010C9429010C942901F0
:100010000C9429010C9429010C9429010C942901B8
:100020000C9429010C9429010C94210F0C94900F2D
:100030000C9429010C9429010C9429010C94290198
:100040000C9429010C9429010C9429010C94290188
:100050000C9429010C9429010C9429010C941A1276
:100060000C9429010C94E8110C94C2110C942901F0
:100070000C9429010C9429010C9429010C94290158
:100080000C9429010C9429010C9429010C94290148
:100090000C9464120C9429010C9429010C942901EC
:1000A0000C9429010C9429010C94290108000000EA
:1000B000BE922449123EABAAAA2ABECDCCCC4C3E5D
:1000C00000000080BEABAAAAAA3E00000000BF004C
:1000D0000000803F0000000000084178D3BB438748
:1000E000D1133D190E3CC3BD4282AD2B3E68EC825C
:1000F00076BED98FE1A93E4C80EFFFBE01C4FF7FE1
:100100003F000000000000000000240027002A003B
:100110002D00300000000000250028002B002E00DC
:100120003100080B00020202000009040000010275
:10013000020000052400100105240101010424022D
:10014000060524060001070581031000400904018B
:1001500000020A00000007050202400000070583B4
:10016000024000000403090412010002EF020140F2
:100170004F1B0692000101020301537061726B462E
:10018000756E00537061726B46756E2050726F20F1
:100190004D6963726F0000000000230026002900F3
:1001A0002C002F00040404040403040502020202CC
:1001B0000403020202020606060606060404020200
:1001C00002040404080201104080401020408040D6
:1001D000800802040180402010020110801020409D
:1001E00040200000000200090F0000030401000C81
:1001F00000000000000000000000000000000000FF
:10020000E41311241FBECFEFDAE0DEBFCDBF13E051
:10021000A0E0B1E0ECE8FCE302C005900D92A6304E
:10022000B107D9F725E0A6E0B3E001C01D92AC36D6
:10023000B207E1F711E0C1E0D1E004C02197FE016F
:100240000E94191DC030D107C9F70E947D140C947B
:10025000441E0C94000008950895FC0180919D03B4
:10026000882311F13FB7F89482E08093E900209150
:10027000F200822F90E01816190614F481E090E045
:10028000882339F0289844E640939C034091F1007C
:100290004083222339F02091F200211103C02BE684
:1002A0002093E8003FBF08958FEF9FEF08952FB789
:1002B000F89483E08093E9009091E800892F8072A0
:1002C00095FF04C09091F20080E4891B2FBF089530
:1002D0008091940381110DC082E08093900384E0AB
:1002E00080939103109293031092920381E0809384
:1002F000940380E993E0089540917503509176034B
:10030000209173033091740342175307B4F4909112
:10031000E8009570E1F39091E80092FD19C0809398
:10032000F100809175039091760301968F73992760
:10033000892B19F48EEF8093E800809175039091DA
:1003400076030196909376038093750381E0089578
:1003500080E00895DF92EF92FF920F931F93CF9367
:10036000DF93D82E8A01EB017B01E40EF51ECE153A
:10037000DF0559F0D7FE12C0FE0184910E947C0176
:1003800021968111F4CF0FEF1FEFC801DF91CF91BC
:100390001F910F91FF90EF90DF9008958881EECF2D
:1003A0000F931F93CF93DF931F92CDB7DEB782E0F9
:1003B000898342E450E062E271E080E80E94AA0191
:1003C0000E946801DC0112960D911C910115110526
:1003D00089F0D801ED91FC910280F381E02DBE01FE
:1003E0006F5F7F4FC801099597FD04C0F801008534
:1003F0001185ECCF89810F90DF91CF911F910F91E3
:100400000895615030F02091F100FC0120830196A5
:10041000F8CF289884E680939C030895AF92BF920A
:10042000CF92DF92EF92FF920F931F93CF93DF93C0
:100430006C017B018B01040F151FEB015E01AE18EF
:10044000BF08C017D10759F06991D601ED91FC9111
:100450000190F081E02DC6010995892B79F7C5013E
:10046000DF91CF911F910F91FF90EF90DF90CF9090
:10047000BF90AF900895FC01538D448D252F30E03F
:10048000842F90E0821B930B541710F0CF960895A1
:1004900001970895FC01918D828D981761F0A28DCE
:1004A000AE0FBF2FB11D5D968C91928D9F5F9F7394
:1004B000928F90E008958FEF9FEF0895FC01918D4A
:1004C000828D981731F0828DE80FF11D858D90E0B7
:1004D00008958FEF9FEF0895FC01918D228D892F54
:1004E00090E0805C9F4F821B91098F73992708953C
:1004F0008BE794E00E946C0221E0892B09F420E054
:10050000822F089580E090E0892B29F00E947802E4
:1005100081110C9400000895FC01A48DA80FB92F3F
:10052000B11DA35ABF4F2C91848D90E001968F731B
:100530009927848FA689B7892C93A089B1898C913A
:1005400082748C93938D848D981306C00288F389EE
:10055000E02D80818F7D80830895EF92FF920F932D
:100560001F93CF93DF93EC0181E0888F9B8D8C8D5F
:10057000981319C0E889F989808185FF14C09FB755
:10058000F894EE89FF896083E889F9898081827413
:1005900080839FBF81E090E0DF91CF911F910F9109
:1005A000FF90EF900895F62E0B8D10E00F5F1F4F18
:1005B0000F731127E02E8C8D8E110CC00FB607FC27
:1005C000FACFE889F989808185FFF5CFCE010E94B5
:1005D0008C02F1CFEB8DEC0FFD2FF11DE35AFF4F95
:1005E000F0829FB7F8940B8FEA89FB898081806243
:1005F000CFCFCF93DF93EC01888D8823B9F0AA8900
:10060000BB89E889F9898C9185FD03C0808186FDCD
:100610000DC00FB607FCF7CF8C9185FFF2CF80811C
:1006200085FFEDCFCE010E948C02E9CFDF91CF9103
:100630000895CF93DF931F92CDB7DEB76983DC01B6
:10064000ED91FC910280F381E02D41E050E0BE018C
:100650006F5F7F4F09950F90DF91CF91089583E0F1
:100660008093E9008091F200882319F08AE3809357
:10067000E80008950E94570190E00895CF93DF931A
:100680001F92CDB7DEB7FC018485958597FD08C024
:100690002FEF3FEF358724870F90DF91CF9108959B
:1006A000CE0101960E942D01019719F4898190E0F5
:1006B000F3CF8FEF9FEFF0CF0F931F93CF93DF9385
:1006C0001F92CDB7DEB78C01FC018485958597FF1D
:1006D0000BC0CE0101960E942D01019771F4898112
:1006E00090E0F80195878487F801848595850F90BF
:1006F000DF91CF911F910F9108958FEF9FEFF1CF71
:10070000FC018485958597FD0BC09FB7F89482E026
:100710008093E9008091F2009FBF90E001960895D8
:100720009FB7F89482E08093E9008091F2009FBF28
:1007300090E0089581508F3008F047C0E82FF0E036
:10074000EC55FC4F0C94191DC103C503B303B90349
:10075000BD03E503E503E503C803CE03D203D603D7
:10076000DC03E503E003809180008F7780938000B5
:100770000895809180008F7DF9CF80918000877FE0
:10078000F5CF84B58F7784BD089584B58F7DFBCF79
:10079000809190008F7780939000089580919000D1
:1007A0008F7DF9CF80919000877FF5CF8091C00039
:1007B0008F778093C00008958091C0008F7DF9CF1E
:1007C0008091C200877F8093C20008951F93CF93CA
:1007D000DF93282F30E0F901EE51FE4F8491F901AB
:1007E000ED53FE4FD491F901EC55FE4FC491CC234B
:1007F000A9F0162F81110E949A03EC2FF0E0EE0F62
:10080000FF1FEC5EFE4FA591B4918FB7F894EC9169
:10081000111108C0D095DE23DC938FBFDF91CF91FB
:100820001F910895DE2BF8CFCF93DF9390E0FC016A
:10083000ED53FE4F24918C559E4FFC0184918823EB
:10084000D1F090E0880F991FFC01EA5FFE4FA5915F
:10085000B491FC01EC5EFE4FC591D491623071F40D
:100860009FB7F8943C91822F809583238C93E881E5
:100870002E2B28839FBFDF91CF9108958FB7F894D7
:10088000EC912E2B2C938FBFF6CFCF93DF93EC01FF
:1008900061E089E00E941404209731F460E089E06F
:1008A000DF91CF910C94E603CF3FD10511F461E0C5
:1008B000F6CFEBEEF1E0E491E150EF3008F07EC0CE
:1008C000F0E0EB59FB4F0C94191D74047B04800479
:1008D0008A049404DE04DE04DE049E04A804B20448
:1008E000BC04C904DE04D10484B5806884BDC7BDDE
:1008F000DF91CF91089584B5806284BDC8BDF8CFE3
:1009000080918000806880938000D0938900C0939C
:100910008800EECF80918000806280938000D09329
:100920008B00C0938A00E4CF809180008860809320
:100930008000D0938D00C0938C00DACF809190001E
:10094000806880939000D0939900C0939800D0CF96
:1009500080919000806280939000D0939B00C09320
:100960009A00C6CF80919000886080939000D093C9
:100970009D00C0939C00BCCF8091C0008068809394
:10098000C0008091C0008F7B8093C000C093CF00D7
:10099000AFCF8091C00080628093C000C093D00030
:1009A000A7CF8091C20088608093C2008091C2006E
:1009B0008B7F8093C200C093D2009ACFC038D105FC
:1009C0000CF075CF6BCF3FB7F89480916F03909187
:1009D0007003A0917103B091720326B5A89B05C066
:1009E0002F3F19F00196A11DB11D3FBFBA2FA92FAE
:1009F000982F8827BC01CD01620F711D811D911DAB
:100A000042E0660F771F881F991F4A95D1F7089516
:100A10008F929F92AF92BF92CF92DF92EF92FF920E
:100A20004B015C010E94E3046B017C010E94E30422
:100A30006C197D098E099F09683E734081059105F7
:100A4000A8F321E0821A9108A108B10888EEC80E27
:100A500083E0D81EE11CF11C81149104A104B104AF
:100A600029F7FF90EF90DF90CF90BF90AF909F90CD
:100A70008F9008958F929F92AF92BF92CF92DF9204
:100A8000EF92FF920F931F93CF93DF936C017B0143
:100A90008A0180911101882309F45CC080919D0333
:100AA000882309F457C08091790380FF05C08091A5
:100AB000E00082608093E000E801B12C8AEFA82E6C
:100AC00093E0892E2AE3922E209711F4BB20D9F1CE
:100AD0000E94570181110AC0AA94AA20D9F161E0AD
:100AE00070E080E090E00E940805EECF8C171D06B4
:100AF00011F00CF08C2F9FB7F8948092E9002091B0
:100B0000E80025FD02C09FBFDFCF282F30E0C21BC9
:100B1000D30BF701815020F041914093F100FACFBF
:100B2000E20EF31EBB2021F09092E800B12CEBCF37
:100B30008091E80085FDE7CF9092E800BB24B39454
:100B4000209709F3F3CF5D9884E68093780310161D
:100B500011063CF081E090E0F6019383828310E07F
:100B600000E0C801DF91CF911F910F91FF90EF90AE
:100B7000DF90CF90BF90AF909F908F9008952FB748
:100B8000F89460916B0370916C0380916D03909168
:100B90006E032FBF089520912703260F3327331F9D
:100BA00021323105ECF420911B04FC0190E080E03F
:100BB000243069F082E00895A09127032191AC01CF
:100BC000495F5C4FA40FB52FB11D2C93019686177A
:100BD00098F380912703680F6093270380E00895BE
:100BE00081E0089510921B0481E080931A04109212
:100BF000F50361E082E00E94E60361E083E00E9489
:100C0000E603E9EBF0E080818E7F808380818D7F39
:100C1000808388E48093B80085E48093BC000895C5
:100C20001092A3031092A203109222041092440483
:100C30000E94F2058BE291E09093A1038093A003C0
:100C40008CE291E090939F0380939E030895CF934D
:100C5000DF9391E0909306038823B9F0C091B80028
:100C6000D091BA008091BC008A7B8093BC0060E088
:100C700082E00E94E60360E083E00E94E6030E94B7
:100C8000F205D093BA00C093B800DF91CF910895D8
:100C90008F929F92AF92BF92CF92DF92EF92FF928C
:100CA0000F931F93CF93DF93D0914404D13208F078
:100CB000D7C0182FC09143040E94E3046B017C014C
:100CC00080911B0481116BC082E080931B04109300
:100CD0001A048FEF8093190410921804D09317040C
:100CE000A3E2B4E0E7EFF3E080E0D81391C0109204
:100CF000F6038091F603CC0FC82BC093F6038091C6
:100D0000F503813009F088C01092F5030E94E304D6
:100D10006B017C018091F6038093BB0080911D04E0
:100D200090911E04A0911F04B0912004892B8A2B5E
:100D30008B2BA1F00E94E30400911D0410911E046E
:100D400020911F04309120046C197D098E099F09A0
:100D5000061717072807390708F442C08091BC001E
:100D600083FDD8CF85EC8093BC000E94E3046B0127
:100D70007C0180911B04823009F450C080911904D9
:100D80008F3F09F46FC080911904803209F46CC060
:100D900080911904803309F469C084E026C08091F1
:100DA0001D0490911E04A0911F04B0912004892B72
:100DB0008A2B8B2B09F484CF0E94E30480901D04BE
:100DC00090901E04A0901F04B09020046C197D091F
:100DD0008E099F0986169706A806B90608F070CFF7
:100DE00080911C040E94270685E010922204109234
:100DF000440410922104DF91CF911F910F91FF9035
:100E0000EF90DF90CF90BF90AF909F908F9008951C
:100E10009D9191938F5F69CF85EEA5CF80911D0441
:100E200090911E04A0911F04B0912004892B8A2B5D
:100E30008B2B09F49ECF0E94E30400911D041091B6
:100E40001E0420911F04309120046C197D098E0925
:100E50009F09061717072807390708F08ACFC0CF60
:100E600081E0C3CF80E0C1CF82E0BFCF83E0BDCFC0
:100E7000CF93DF93EC018B818823A1F0888191E0EF
:100E8000909321048093430410922204109244040E
:100E900081E00E94480691E0811190E0892FDF9166
:100EA000CF9108950E94100681E08B83CE010E94AD
:100EB0003807982F8111E2CFF1CF0895E091A30375
:100EC0008091A203E81730F4F0E0E65BFC4F8081EC
:100ED00090E008958FEF9FEF08959091A303809184
:100EE000A2032FEF3FEF981748F4E92FF0E0E65BFD
:100EF000FC4F208130E09F5F9093A303C9010895C8
:100F00008091A2039091A303891B990B0895CF921E
:100F1000DF92EF92FF920F931F93CF93DF937C01A9
:100F2000CB018A0120912104222389F0EB016B017E
:100F3000C40ED51ECC15DD0569F06991D701ED9180
:100F4000FC910190F081E02DC7010995F3CF642F4A
:100F50000E94CB05C801DF91CF911F910F91FF90A7
:100F6000EF90DF90CF900895CF93DF931F92CDB78E
:100F7000DEB76983209121042223F9F020914404F3
:100F8000203258F021E030E0FC013383228390E0EE
:100F900080E00F90DF91CF91089580912204E82F97
:100FA000F0E0ED5DFB4F998190838F5F8093220489
:100FB0008093440481E090E0ECCF61E0CE010196A3
:100FC0000E94CB05F7CFCF93DF93EC01DB014AE022
:100FD000E881F981908190539A30C0F48D919C9171
:100FE0001197489F9001499F300D112411963C9311
:100FF0002E93819120533109280F311D87FD3A9599
:1010000011963C932E93F983E883E2CFDF91CF9141
:101010000895DC01ED91FC9111979F012E5F3F4FE8
:101020002D933C93808191810895CF92DF92EF922E
:10103000FF920F931F93CF93DF936C017B0110E01E
:1010400000E0D0E0C0E0D6011296ED91FC91E00FF7
:10105000F11F6491662369F0D701ED91FC91019035
:10106000F081E02DC7010995C80FD91F0F5F1F4FF1
:10107000EACFCE01DF91CF911F910F91FF90EF90BA
:10108000DF90CF900895DC011496ED91FC911597B7
:1010900016968D919C9117979C012F5F3F4F179645
:1010A0003C932E931697E80FF91F608381E090E040
:1010B000089591E09093210490E790934304109257
:1010C00022041092440461E070E001C0660F8A952A
:1010D000EAF781E694E00E94B40781E00E944806A6
:1010E0006AEF70E080E090E00C940805682F8AE0D9
:1010F0000E94E6030E94BF0568577C4E8F4F9F4FAA
:10110000609388037093890380938A0390938B0381
:101110000895DC0114968D919C91DC01ED91FC9178
:101120000190F081E02D0994089590E080E0089509
:10113000CF93DF93DC0114962D913C912417350752
:1011400010F490E01EC0EA01FC01818192812081AF
:1011500031E0309321042093430410922204109232
:101160004404DC01ED91FC910280F381E02D0995AE
:10117000C817D90731F781E00E94480691E0811134
:10118000E0CF892FDF91CF9108952F923F924F9218
:101190005F926F927F928F929F92AF92BF92CF9207
:1011A000DF92EF92FF920F931F93CF93DF93CDB710
:1011B000DEB72C970FB6F894DEBF0FBECDBF8C0103
:1011C000CE0101964C018AE0D4011D928A95E9F77F
:1011D000F80182859385A485B585892B8A2B8B2B75
:1011E00009F442C00E94BF05D8011A96CD90DD9047
:1011F000ED90FC901D97C616D706E806F90650F547
:101200000E94BF05F801C284D384E484F5846C197C
:101210007D098E099F09603D77408105910520F584
:1012200080E02C960FB6F894DEBF0FBECDBFDF91E5
:10123000CF911F910F91FF90EF90DF90CF90BF90D3
:10124000AF909F908F907F906F905F904F903F9066
:101250002F9008950E94BF05D8011A966D937D9333
:101260008D939C931D97DCCF0E94BF05F801628788
:101270007387848795874AE050E0B401808191812B
:101280000E94980883E089831A8284E08B8343E07C
:1012900050E0B401D8018D919C910E949808F8010A
:1012A0000190F081E02DFC87EB87B12CA12C68E048
:1012B000262E312CAB85BC8514968D919C916101B5
:1012C000CA18DB088C159D0508F46C01EB85FC85BC
:1012D000E0800E94E3042B013C0180911B048111FA
:1012E00073C0FC2CF0E2FC1510F450E2F52E21E066
:1012F00020931B04C1018C199D09A816B90608F496
:1013000020E020931A048FEF8093190410921804A0
:101310008F0D8093170491E09093F6038091F6036C
:10132000EE0CE82AE092F6038091F503813009F093
:1013300092C01092F5030E94E3042B013C018091BE
:10134000F6038093BB0080911D0490911E04A09130
:101350001F04B0912004892B8A2B8B2BA1F00E94B3
:10136000E30420911D0430911E0440911F0450910C
:101370002004641975098609970926173707480755
:10138000590708F442C08091BC0083FDD8CFA5EC7A
:10139000A093BC000E94E3042B013C0180911B043C
:1013A000813009F45CC0809118048F1510F4F0901E
:1013B0001804A7EFB3E0EAE4F3E080E08F1551F101
:1013C0009D9191938F5FFACF80911D0490911E049F
:1013D000A0911F04B0912004892B8A2B8B2B09F438
:1013E0007CCF0E94E30420911D0430911E044091A3
:1013F0001F0450912004641975098609970926175E
:1014000037074807590708F068CF80911C040E94ED
:101410002706F12C1092A303F092A203FC141D04E2
:1014200009F046C07401EA0CFB1C3701C70186199C
:1014300097098C159D05A8F5EB85FC858181928126
:10144000DC01ED91FC910284F385E02D0995F70113
:1014500081937F01EBCFB5EEB093BC009BCF809121
:101460001D0490911E04A0911F04B0912004892BAB
:101470008A2B8B2B09F492CF0E94E30420911D0448
:1014800030911E0440911F04509120046419750985
:1014900086099709261737074807590708F07ECFAE
:1014A000B4CFAC0CBD1CF8E0AF16B10408F402CF09
:1014B0008981833009F0B4CE8A81843009F0B0CEBE
:1014C0006B8170E090E080E00E94491B20E030E0FA
:1014D00040E853E40E94501C6B017C016C8170E079
:1014E00090E080E00E944B1B9B01AC01C701B6015C
:1014F0000E94371A20E030E040E251E40E94A81A2E
:10150000D80112966D937D938D939C931597FD80D2
:101510006F2D6F7770E090E080E00E944B1B20E021
:1015200030E040E853E40E94501C4B015C016E81A6
:1015300070E090E080E00E944B1B9B01AC01C50174
:10154000B4010E94371A20E030E040E251E40E94EA
:10155000A81A2F2D30E0220F232F221F330B232B0D
:1015600039F4F801668377838087918781E059CECB
:10157000AB01BC017058D80116964D935D936D93E5
:101580007C931997F3CF0F931F93CF93DF93EC01C5
:10159000088119810E94100681E0F8018383C80147
:1015A0000E943807CE01DF91CF911F910F910C94CB
:1015B000C508FB0101900020E9F73197AF01461BF8
:1015C000570BDC01ED91FC910280F381E02D099431
:1015D0008F929F92AF92BF92EF92FF920F931F93C1
:1015E000CF93DF93CDB7DEB7A1970FB6F894DEBFE8
:1015F0000FBECDBF7C01FA01CB0119A2223008F445
:101600002AE08E010F5D1F4F822E912CB12CA12C50
:10161000BF01A50194010E94F71CF901CA016A30BB
:101620000CF5605DD8016E938D01232B242B252BA7
:1016300079F790E080E0109721F0BD01C7010E948A
:10164000D90AA1960FB6F894DEBF0FBECDBFDF91C9
:10165000CF911F910F91FF90EF90BF90AF909F900F
:101660008F900895695CDECFCF92DF92EF92FF9268
:101670000F931F93CF93DF9377FF1DC06A017B0108
:10168000EC016DE20E9443088C0144275527BA0102
:101690004C195D096E097F092AE0CE010E94E80A13
:1016A000800F911FDF91CF911F910F91FF90EF90CD
:1016B000DF90CF9008952AE0DF91CF911F910F9195
:1016C000FF90EF90DF90CF900C94E80A0F931F9358
:1016D000CF93DF93EC010E94D90A8C0160E572E0A0
:1016E000CE010E94D90A800F911FDF91CF911F91E7
:1016F0000F91089585ED8093BC0080911D04909119
:101700001E04A0911F04B09120040796A11DB11DD5
:1017100023E0B695A795979587952A95D1F72091BF
:10172000BC0024FD03C010921B04089540911D04C9
:1017300050911E0460911F0470912004452B462B8C
:10174000472B69F30097A105B10541F02AE22A95DC
:10175000F1F700C00197A109B109E1CF80911C0404
:101760000C9427062F923F924F925F926F927F9236
:101770008F929F92AF92BF92CF92DF92EF92FF92A1
:101780000F931F93CF93DF93CDB7DEB7E2970FB6DA
:10179000F894DEBF0FBECDBF2996EEACFFAC299703
:1017A000CE01855B9F4F9AAB89AB2B968EAD9FADDB
:1017B0002B9798AB8FA710E0EFA5F8A9608166235F
:1017C00009F433C2653229F0C7010E9443081F5F44
:1017D0000BC0CF01019698AB8FA71EA61DA68181D5
:1017E000811108C0F8ABEFA78FA598A9019698AB17
:1017F0008FA7E2CF853211F465E2E6CF00E08D32AB
:1018000021F43296F8ABEFA701E0EFA5F8A98081AB
:10181000803321F43196F8ABEFA70260EFA5F8A969
:1018200080818A3209F062C03196F8ABEFA7CE0111
:10183000C1960E9409089EA78DA790E3D92E01FDAD
:1018400002C080E2D82E21E030E02C0F3D1F38A7E7
:101850002FA31AA619A61EA21DA282E192E09CA3A4
:101860008BA31CA61BA6EFA5F8A980818E3251F48C
:101870003196F8ABEFA7BE01655D7F4FCE018F9625
:101880000E94E307EFA5F8A98081B12C8C3629F4DA
:101890003196F8ABEFA7BB24B394EFA5F8A98081EC
:1018A000833761F5CE01C1960E940908FC010190C1
:1018B0000020E9F73197E81BF90B98A78FA3FAA747
:1018C000E9A7A9A4BAA48DA59EA5A816B90608F4EF
:1018D00084C11EA61DA600FD89C10DA5015008F4F6
:1018E00081C16D2DC7010E944308F8CFBE01635D21
:1018F0007F4FCE018F960E94E3079FCF803781F400
:10190000CE01C1960E9409082CE032E03A8F298F5F
:101910009C8F8B8FB701CE0149960E94150864CF2A
:101920008237D1F4CDA4DEA4CE01C1960E9409086D
:101930009E8F8D8FD8A2CF8E1C8E1B8E88EF91E04C
:101940009A8F898F26E032E03AA329A3B701CE010E
:1019500049960E94B61348CF8E36F1F4CE01C19657
:101960000E9409086C018DA59EA59C01215031099A
:101970003EA72DA7892B09F437CFBB2041F0C11416
:10198000D10489F3B601C7010E94D90AECCF6C2DAE
:10199000C7010E944308E7CF843611F08936D1F49D
:1019A000BB2079F0E9A9FAA9CF0104969AAB89ABDB
:1019B0004081518162817381CE0183960E94340BF4
:1019C00080CFCE01C1960E940908AC01990F660B29
:1019D000770BF2CF8537D1F4E9A9FAA9CF01BB2063
:1019E00069F004969AAB89AB408151816281738121
:1019F0002AE0CE0183960E94E80A63CF02969AAB52
:101A000089AB4081518170E060E0F2CF863609F009
:101A1000B9C07BA4E9A9FAA9CF0104969AAB89AB16
:101A200080809180A280B380A5019401C501B4019A
:101A30000E94BD1C63E572E0811126C014012501DE
:101A4000E89457F82FEF3FEF4FE75FE7C201B1018E
:101A50000E94BD1C81110CC02FEF3FEF4FE75FE7E5
:101A6000C201B1010E94A31A67E572E0181664F082
:101A70002FEF3FEF4FE75FE4C501B4010E94FB1B6E
:101A800018163CF46BE572E0CE0183960E94D90AE9
:101A900018CF2FEF3FEF4FE75FECC501B4010E9475
:101AA000A31A87FDEFCF20E030E0A901C501B40102
:101AB0000E94A31A87FF09C06DE2CE0183960E949F
:101AC0004308B7FAB094B7F8B094C72C612C60E023
:101AD00070E080E09FE3671440F420E030E040E2F3
:101AE00051E40E94A81A6394F6CFA50194010E94C4
:101AF000371A4B015C010E941A1B1B012C012AE0C2
:101B0000BC01A101CE0183960E94E80A772009F466
:101B1000D8CEC201B1010E94491B9B01AC01C50195
:101B2000B4010E94361A4B015C016EE2CE0183962D
:101B30000E944308CA943FEFC31609F4C2CE20E0C6
:101B400030E040E251E4C501B4010E94501C2B0179
:101B50003C010E941A1B4B01B12CA12C2AE0B501BB
:101B6000A401CE0183960E94E80AC501B4010E9437
:101B7000491B9B01AC01C301B2010E94361A4B0103
:101B80005C01D8CF8837B1F4E9A9FAA9CF01BB200D
:101B900049F004969AAB89AB40815181628173818F
:101BA00020E127CF02969AAB89AB4081518170E04A
:101BB00060E0F6CF833609F084CECE01C1960E9454
:101BC0000908898381E090E08C0F9D1F98A78FA35F
:101BD00021E030E03AA729A774CE8A199B099EA775
:101BE0008DA779CE8DA5180F1EA61DA6EFA1F8A56D
:101BF00089A59AA59C012F5F3F4F3AA729A7E80F17
:101C0000F91F10826FA178A5A501C7010E940E02DD
:101C1000C82E0DA5015028F06D2DC7010E94430864
:101C2000F9CF8DA5180F1C0DDFCD812F90E0E29626
:101C30000FB6F894DEBF0FBECDBFDF91CF911F91DD
:101C40000F91FF90EF90DF90CF90BF90AF909F905B
:101C50008F907F906F905F904F903F902F9008955E
:101C6000FF920F931F93CF93DF93CDB7DEB7C85585
:101C7000D1090FB6F894DEBF0FBECDBF8E010F5F46
:101C80001F4F90E5D8011D929A95E9F7FE01EF5A92
:101C9000FF4F15830483178216821382128222E17A
:101CA00032E03183208324EA33E03F932F93282FBF
:101CB0002150330BD901AA0FBB1FA451BE4F11965F
:101CC0008C9111978F938C918F938091F4031F9235
:101CD0008F938FE592E09F938F93FF93EF930E94F2
:101CE000B20BF09011016AE070E080E090E00E9499
:101CF00008050FB6F894DEBF0FBECDBFFF2029F058
:101D0000B80188E195E00E94660BB8018BE794E08A
:101D10000E94660BE4EAF3E080E5DF011D928A95FC
:101D2000E9F7C85ADF4F0FB6F894DEBF0FBECDBF3C
:101D3000DF91CF911F910F91FF900895FF920F9324
:101D40001F93CF93DF93CDB7DEB7C855D1090FB638
:101D5000F894DEBF0FBECDBF8E010F5F1F4F80E531
:101D6000D8011D928A95E9F7FE01EF5AFF4F1583BE
:101D70000483178216821382128282E192E0918399
:101D8000808384EA93E09F938F938091F4031F9262
:101D90008F9388E792E09F938F93FF93EF930E9436
:101DA000B20BF09011016AE070E080E090E00E94D8
:101DB00008050FB6F894DEBF0FBECDBFFF2029F097
:101DC000B80188E195E00E94660BB8018BE794E0CA
:101DD0000E94660BE4EAF3E080E5DF011D928A953C
:101DE000E9F7C85ADF4F0FB6F894DEBF0FBECDBF7C
:101DF000DF91CF911F910F91FF900895FF920F9364
:101E00001F93CF93DF93EC01F62E0C811D818E8101
:101E10009F81080F191FC8010E94201A8F1521F0F9
:101E20006F2DC8010E94281A8E819F8101969F8381
:101E30008E8381E090E0DF91CF911F910F91FF9011
:101E400008951F920F920FB60F9211248F939F93B4
:101E50008091E1009091E100937F9093E10083FFF6
:101E60000FC01092E90091E09093EB001092EC000B
:101E700092E39093ED0010929D0398E09093F00010
:101E800082FF22C093E09093E9009091F2009923A1
:101E900019F09AE39093E80090917803992341F028
:101EA00090917803915090937803911101C05D9ABD
:101EB00090919C03992341F090919C0391509093B1
:101EC0009C03911101C0289A84FF18C08091E20000
:101ED0008E7E81608093E2008091E1008F7E80930E
:101EE000E100809179038E7E8061809379039F91D8
:101EF0008F910F900FBE0F901F90189580FFF7CF16
:101F00008091E2008E7E80618093E2008091E1000A
:101F10008E7E8093E100809179038E7E8160E5CF93
:101F20001F920F920FB60F921124CF92DF92EF9271
:101F3000FF920F931F932F933F934F935F936F9352
:101F40007F938F939F93AF93BF93EF93FF93CF9321
:101F5000DF93CDB7DEB76C97DEBFCDBF1092E9003F
:101F60008091E80083FF25C068E0CE0145960E947D
:101F7000010282EF8093E8008D8987FF39C090913C
:101F8000E80090FFFCCF982F907609F034C19E892D
:101F90004F89588D2F89F88C911131C0803861F5A7
:101FA00080917A038093F1001092F1008EEF80937C
:101FB000E8006C960FB6F894DEBF0FBECDBFDF9180
:101FC000CF91FF91EF91BF91AF919F918F917F91B1
:101FD0006F915F914F913F912F911F910F91FF90C2
:101FE000EF90DF90CF900F900FBE0F901F9018953D
:101FF0009EEF9093E800C7CF1092F100D5CF9130BB
:1020000059F48111D3CF4130510581F680917A0383
:102010008D7F80937A03CACF933049F48111C6CF64
:102020004130510519F680917A038260F2CF9530E4
:1020300041F48091E80080FFFCCF20682093E3000A
:10204000B5CF963009F0A9C00B8D1C8D22E01092FF
:10205000E9001092760310927503F2122EC01092CE
:102060007403109273030E94D0011F8299E0998338
:10207000FA8291E09E8390EA98879AEF998720915F
:10208000750330917603275F3F4F3C832B838D830D
:102090001092E90010927603109275031093740366
:1020A0000093730349E050E0BE016F5F7F4F80E013
:1020B0000E94AA010E94D00179CF1093740300936B
:1020C00073030E946801DC0112960D911C910115A9
:1020D000110509F451C1D801ED91FC910480F581FD
:1020E000E02DBE016B5E7F4FC8010995009709F096
:1020F0003EC1F80100851185EACFF3E0FF120EC062
:102100008F89882309F440C0823061F440E862E19D
:1021100083E891E00E948313811148CF81E280938C
:10212000EB0047CF813029F440E868E08AE791E08E
:10213000F1CF833099F70E946801DC011296ED908F
:10214000FC908E010F5F1F4F6801E114F10479F0DC
:10215000D701ED91FC910680F781E02DB801C70110
:102160000995080F111DF701E084F184EECFD80125
:102170001C92F60101900020E9F73197BF016C191C
:102180007D0940E0C601C6CF64E671E0FB014491E1
:1021900050E080E80E94AA0109CF973009F4BECF31
:1021A000983021F481E08093F10000CF993009F05C
:1021B000FDCE837009F0B2CFE6EEF1E081E031E0D0
:1021C00096E32191222371F08093E9003093EB0094
:1021D000DF0111972C912093EC009093ED008F5F1D
:1021E000873079F78EE78093EA001092EA008F89B2
:1021F00080939D03DBCE8B8D9C8D1092E900109215
:102200007603109275039093740380937303898D02
:10221000811192C08E899D89913A49F4813209F0E9
:102220007DCF47E050E06AE071E080E0B3CF9132CB
:1022300009F074CF833269F48F89988DB0E0A0E003
:102240008093000190930101A0930201B0930301D8
:10225000ADCE803269F48091E80082FFFCCF67E068
:102260008AE091E00E9401028BEF8093E8009ECE0D
:10227000823209F09BCE8F8980931101EEEFFFE748
:10228000859194918B3F9C4D51F1E0E0F8E0809175
:102290000A0190910B01A0910C01B0910D01803BBE
:1022A0009440A105B105F1F48091110180FD1AC09F
:1022B000EE3F8AE0F80789F587E797E79183808307
:1022C000809160008093770388E19BE00FB6F894DB
:1022D000A895809360000FBE9093600067CEEEEFEC
:1022E000FAE0D5CF808191818737974709F05ECE9C
:1022F000A895809160008861809360008091770349
:1023000080936000EE3F2AE0F20789F08091FE0A98
:102310009091FF0A9183808349CE80819181873794
:10232000980751F29093FF0A8093FE0AC5CF10924E
:10233000FF0A1092FE0A3ACE0E946801DC01129652
:102340000D911C910115110509F4E8CED801ED910C
:10235000FC910190F081E02DBE016B5E7F4FC801C2
:102360000995811123CEF80100851185EBCF181650
:1023700019060CF41BCED2CEF1E0FF12BECE68E6F9
:1023800071E004CF1F920F920FB60F9211242F937A
:102390003F934F935F936F937F938F939F93AF93ED
:1023A000BF93EF93FF938BE794E00E948C02FF9121
:1023B000EF91BF91AF919F918F917F916F915F91BD
:1023C0004F913F912F910F900FBE0F901F90189536
:1023D0001F920F920FB60F9211242F938F939F93FA
:1023E000EF93FF93E0918B04F0918C048081E09156
:1023F0009104F091920482FD1BC09081809194041D
:102400008F5F8F7320919504821741F0E0919404BF
:10241000F0E0E558FB4F958F80939404FF91EF9186
:102420009F918F912F910F900FBE0F901F90189535
:102430008081F4CF1F920F920FB60F9211242F9329
:102440003F938F939F93AF93BF9380916B03909132
:102450006C03A0916D03B0916E0330916A0323E089
:10246000230F2D3758F50196A11DB11D20936A0346
:1024700080936B0390936C03A0936D03B0936E03F2
:1024800080916F0390917003A0917103B0917203DA
:102490000196A11DB11D80936F0390937003A093CB
:1024A0007103B0937203BF91AF919F918F913F9150
:1024B0002F910F900FBE0F901F90189526E8230FB5
:1024C0000296A11DB11DD2CF1F920F920FB60F928F
:1024D00011242F933F934F935F936F937F938F9329
:1024E0009F93AF93BF93EF93FF938091B900887F41
:1024F000803609F44AC0F0F5883209F4A7C018F50F
:10250000803109F49BC0B8F4882309F4F9C08830FD
:1025100009F494C0FF91EF91BF91AF919F918F917A
:102520007F916F915F914F913F912F910F900FBECF
:102530000F901F901895883109F488C0803251F7A8
:102540008093190414C0803409F49DC040F4803392
:10255000B9F38833F9F68093190485ECB0C080355F
:1025600009F485C0883509F496C0883499F60E942C
:102570007A0BD0CF883909F48CC038F5883729F028
:1025800050F4883611F0803729F683E080931B04DD
:102590001092490357C0883809F47BC0803919F07C
:1025A000803809F0B7CF80914903803208F071C0BC
:1025B000E091490381E08E0F809349038091BB0035
:1025C000F0E0E75DFC4F80833DC0803B39F0E0F4F4
:1025D000803A09F479C0883A09F09CCF84E080936E
:1025E0001B041092280310922703E091A003F0919E
:1025F000A10309958091270381110FC081E0809389
:1026000027031092070309C0803C09F4A6CF883C39
:1026100009F4A3CF883B09F07DCFE091280381E046
:102620008E0F80932803F0E0E95FFC4F8081809358
:10263000BB00909128038091270329C08091F60365
:102640008093BB0085EC8093BC0064CF909118040C
:1026500080911704981758F5E091180481E08E0FC7
:1026600080931804F0E0E950FC4F8081E9CFE091BD
:10267000180481E08E0F809318048091BB00F0E075
:10268000E950FC4F808390911804809117049817AB
:10269000C8F285E8D8CFE091180481E08E0F8093CE
:1026A00018048091BB00F0E0E950FC4F80838091DA
:1026B0001A0481115CCF81E08093F50384EA809352
:1026C000BC0010921B0426CF85EC8093BC001092B6
:1026D0001B0480914903803230F4E0914903F0E01B
:1026E000E75DFC4F10826091490370E0E0919E032A
:1026F000F0919F0389E293E00995109249030ACF74
:102700001092190434CFEF92FF920F931F93CF933F
:10271000DF93F82E192FE62E042F81E0860F880F05
:102720000E947C0183E00E947C01CF2DD12FEC0E12
:10273000FD2EF11CCE15DF05B9F007FF13C0FE0119
:1027400084910E947C01182F80E00E947C018123EB
:1027500021968111EFCFDF91CF911F910F91FF90C3
:10276000EF9008958881EDCF81E0F5CFEF92FF9251
:102770000F931F93CF93DF937C018B01D0E0C0E0D8
:10278000D70116968D919C911797C817D90790F489
:1027900014968D919C918C0F9D1F0E94201AD80138
:1027A000ED91FC910190F081E02D682FC801099511
:1027B0002196E6CFDF91CF911F910F91FF90EF907F
:1027C000089508970C94B613FF920F931F93CF931D
:1027D000DF93EBE7F4E01382128288EE93E0A0E04F
:1027E000B0E084839583A683B7832EE132E0318302
:1027F00020832DEC30E0358724872CEC30E03787C0
:10280000268728EC30E0318B208B29EC30E0338BAD
:10281000228B2AEC30E0358B248B2EEC30E0378B8A
:10282000268B118E128E138E148EE8E1F5E0138242
:10283000128284839583A683B78320E332E03183B9
:1028400020832FEF3FEF35872487C1E6D4E01B823A
:102850001A828C839D83AE83BF8382E492E0998346
:10286000888386E090E00E941F1DFC018CE5F82E15
:10287000F082D283C183138200E210E015830483C7
:10288000ADE6B4E01196FC93EE931A961D921D925C
:102890001D921C921D9786E090E00E941F1DFC0176
:1028A000F082D283C183138215830483A3E5B4E04D
:1028B00011969C938E931A961D921D921D921C92B6
:1028C0001D9786E090E00E941F1DFC01F082D283DC
:1028D000C183138215830483A5E4B4E011969C930D
:1028E0008E931A961D921D921D921C921D97DF9138
:1028F000CF911F910F91FF900895CF93DF93CDB7A4
:10290000DEB7C054D1090FB6F894DEBF0FBECDBFFD
:10291000789484B5826084BD84B5816084BD85B5BA
:10292000826085BD85B5816085BD80916E008160C6
:1029300080936E001092810080918100826080936C
:10294000810080918100816080938100809180006E
:1029500081608093800080919100826080939100DB
:1029600080919100816080939100809190008160BE
:10297000809390008091C10084608093C100809119
:10298000C10082608093C1008091C100816080930A
:10299000C1008091C30081608093C3008091C0001A
:1029A00082608093C0008091C20081608093C200E9
:1029B00080917A00846080937A0080917A008260AE
:1029C00080937A0080917A00816080937A00809170
:1029D0007A00806880937A0010929D0310927A03A7
:1029E000109279038091D70081608093D70080EAAC
:1029F0008093D80089B5806189BD89B5826089BD21
:102A000009B400FEFDCF61E070E080E090E00E943C
:102A100008058091D8008F7C80618093D8008091D8
:102A2000E000807F8093E0008091E1008E7E8093C3
:102A3000E1008DE08093E200559A209A8FEF9FEF9E
:102A40009093250580932405E0918B04F0918C04EC
:102A500082E08083E0918704F09188041082E09105
:102A60008904F0918A048FEC808310929304E091A2
:102A70008F04F091900486E08083E0918D04F091C2
:102A80008E04808180618083E0918D04F0918E04BA
:102A9000808188608083E0918D04F0918E04808134
:102AA00080688083E0918D04F0918E0480818F7D19
:102AB000808368E873E180E090E00E94080561E0AF
:102AC0008AE00E94140461E089E00E94140461E03D
:102AD00088E00E94140480E890E00E94450461E0D0
:102AE00088E00E94E60361E08AE00E94E60362E07B
:102AF00085E00E941404E7EEF1E08491E8ECF1E057
:102B00000491E9EAF1E01491112379F081110E9416
:102B10009A03E12FF0E0EE0FFF1FEA56FE4FA5915A
:102B2000B491EC910E2382E009F481E08093F403E8
:102B300064EAE62E63E0F62EFE82ED8218861F829E
:102B40001C821B8202E112E01A8309838EE892E064
:102B50009F938F9388E191E09F938F9381E090E022
:102B60008C0F9D1F9F938F930E94B20B0E949E0E0D
:102B7000FE82ED8218861F821C821B821A830983C3
:102B80008091F4031F928F9389E291E09F938F933A
:102B9000A1E0B0E0AC0FBD1FBF93AF930E94B20B9A
:102BA0000E949E0E0E9410067CE7E72E73E0F72E2F
:102BB0000FB6F894DEBF0FBECDBF44244394E4EAC1
:102BC000CE2EE3E0DE2E5801F3E96F2EF2E07F2EE9
:102BD00007E411E0ACE38A2EA1E09A2ED7011D9202
:102BE0007D0183E0840D0E94590864EF71E080E06C
:102BF00090E00E940805B2E04B1609F4AAC1E3E098
:102C00004E1609F4ADC18DE694E00E94C30A80938C
:102C10007C03F70131978081DE82CD8218861F8286
:102C20001C821B82BA82A982882309F4A0C19F92C8
:102C30008F921F930F9381E090E08C0F9D1F9F93C5
:102C40008F930E94B20B0F900F900F900F900F90E8
:102C50000F90842D0E94300E68EE73E080E090E0CB
:102C60000E9408054394B4E04B12B8CF84EA93E085
:102C70009E838D8318861F821C821B8282E192E0D4
:102C80009A8389838CEB92E09F938F9387E491E002
:102C90009F938F93E1E0F0E0EC0FFD1FFF93EF9324
:102CA0000E94B20B0E949E0E60E088E00E94E60344
:102CB0000E94BF0560938003709381038093820319
:102CC0009093830380E00E9476080F900F900F90FE
:102CD0000F900F900F908091E1019091E201A091EF
:102CE000E301B091E4018CAF9DAFAEAFBFAF1E0169
:102CF00091E2290E311C8CAD9DADAEADBFAD89A763
:102D00009AA7ABA7BCA70E94BF0500918C031091A6
:102D10008D0320918E0330918F0306171707280724
:102D2000390708F0D7C2D901C801805A9541AF4F81
:102D3000BF4F80938C0390938D03A0938E03B09329
:102D40008F0334E0A32EB12C19AE11E044EAC42E57
:102D500043E0D42E52E1E52E52E0F52E83E0810FC0
:102D60000E94590864EF71E080E090E00E9408053D
:102D7000123009F407C1133009F423C18DE694E041
:102D80000E94C508882309F43BC180917304909187
:102D90007404A0917504B09176048D8B9E8BAF8BDB
:102DA000B88F80916F0490917004A0917104B091DC
:102DB00072048D839E83AF83B887E1E0F0E0EC0F6F
:102DC000FD1FEA0DFB1D7081618192818381E1E12C
:102DD000F0E0EC0FFD1FEA0DFB1D20812DABA18162
:102DE0002196AFAF21978280938020E030E048ECBD
:102DF00052E47CAB68AB9AAF8BAF672F78A9892F71
:102E00009BAD0E94A81A0E94081C2B013C0123ECD8
:102E100035EF4CE851E40DA92196BFAD2197BDA730
:102E20008EA69FA6602F7B2FC4010E94501C6DAB05
:102E30007EAB8FAB98AF28EB3EE143E753E4ADA503
:102E4000602F7A2F882D992D0E94371A9B01AC0193
:102E50006DA97EA98FA998AD0E94A81A20E030E044
:102E600040E85FE30E94371A9B01AC01C301B20145
:102E70000E94A81A2B013C0128EB3EE143E753E4F2
:102E80000E94501C6DAB7EAB8FAB98AFA30192013B
:102E900063EC75EF8CE891E40E94361A9B01AC015B
:102EA0006DA97EA98FA998AD0E94A81A962E872E8B
:102EB000782E692EDEA2CDA218A61FA21CA21BA2EC
:102EC000FAA2E9A2EFA5EF93FEA5FF932DA52F93FC
:102ED0000F938BE591E09F938F933F922F920E94E7
:102EE000B20B812F0E94300EDEA2CDA218A61FA227
:102EF0001CA21BA2FAA2E9A2BBADBF93EAADEF935D
:102F0000F8A9FF932CA92F9389E691E09F938F93C3
:102F10003F922F920E94B20B812F0E94300EDEA2B0
:102F2000CDA218A61FA21CA21BA2FAA2E9A26F9210
:102F30007F928F929F92E8E7F1E0FF93EF933F92A9
:102F40002F920E94B20B0FB6F894DEBF0FBECDBF1A
:102F500073C083E594E00E94C30A80937D0359CE39
:102F600085E494E00E94C30A80937E0352CE7F9250
:102F70006F921F930F93A1E0B0E0AC0FBD1FBF9302
:102F8000AF935FCE83E594E00E94C5088823C1F12A
:102F90008091590490915A04A0915B04B0915C0413
:102FA000898F9A8FAB8FBC8F809155049091560476
:102FB000A0915704B091580489879A87AB87BC8742
:102FC000FCCE85E494E00E94C5088823C9F0809176
:102FD0004B0490914C04A0914D04B0914E048D8F00
:102FE0009E8FAF8FB8A38091470490914804A09121
:102FF0004904B0914A048D879E87AF87B88BDDCE98
:10300000DEA2CDA218A61FA21CA21BA2FAA2E9A2B0
:10301000ABE4B1E0BF93AF9387E491E09F938F93CC
:103020003F922F920E94B20B0F900F900F900F9033
:103030000F900F90B1E0B9AF812F0E94300E1F5F4B
:1030400094E0A90EB11C143009F088CEA9ADA111ED
:10305000C2C1198D0A8DFB8CEC8CAD8CBE8CCF8CD3
:10306000D8A09501A601D801F7016B2F7A2F8F2FD9
:103070009E2F0E94A31A87FD04C01A2D0B2DFC2C35
:10308000ED2CB984CA84DB84AC846D847E848F8407
:1030900098889301A4016B2D7C2D8D2D9A2D0E9473
:1030A000FB1B181624F0B62CC72CD82CA92CBD81DC
:1030B000BDA7EE81EEA7FF81FFA728852CAB20E0FE
:1030C00030E048EC52E4AE2FECA96B2F7A2F8F2F13
:1030D0009E2F0E94A81A0E94081C2B013C0123EC81
:1030E00035EF4CE851E4D801F7016B2F702F8F2F8B
:1030F0009E2D0E94501C68AB79AB8AAB9BAB28EB32
:103100003EE143E753E4D801F7016B2F702F8F2F77
:103110009E2D0E94371A9B01AC0168A979A98AA942
:103120009BA90E94A81A20E030E040E85FE30E94DB
:10313000371A9B01AC01C301B2010E94A81A2B01EE
:103140003C0128EB3EE143E753E40E94501C68AB8E
:1031500079AB8AAB9BABA301920163EC75EF8CE872
:1031600091E40E94361A9B01AC0168A979A98AA949
:103170009BA90E94A81A962E872E782E692E20E0F1
:1031800030E044E352E46B2D7C2D8D2D9A2D0E946E
:10319000FB1B1816C4F420E030E040E251E4D801F3
:1031A000F7016B2F702F8F2F9E2D0E94361A5524FA
:1031B0005394D401F3012B2F3A2F4F2F5E2F0E94EF
:1031C000FB1B18160CF0512C84EAA82E83E0B82EB5
:1031D000BEA2ADA218A61FA21CA21BA292E1C92EDC
:1031E00092E0D92EDAA2C9A2EF92FF920F931F9319
:1031F00087E891E09F938F933F922F920E94B20BAA
:103200000E949E0EBEA2ADA218A61FA21CA21BA2C7
:10321000DAA2C9A28CA98F939FA59F93AEA5AF9365
:10322000BDA5BF9384EA91E09F938F933F922F9225
:103230000E94B20B0E949E0EBEA2ADA218A61FA2B3
:103240001CA21BA2DAA2C9A26F927F928F929F92B8
:103250008FEB91E09F938F933F922F920E94B20B3E
:103260000E949E0EBEA2ADA218A61FA21CA21BA267
:10327000DAA2C9A2E52DF0E0EE0FFF1F81E090E099
:103280008C0F9D1FE80FF91F81A58F9380A58F9349
:1032900082ED91E09F938F933F922F920E94B20B09
:1032A0000FB6F894DEBF0FBECDBF0E949E0E852DD7
:1032B0000E947608B9ADBB2309F4ADC080ED97E05C
:1032C000A0E0B0E08093060190930701A09308016D
:1032D000B09309010E94BF050091880310918903F2
:1032E00020918A0330918B030617170728073907A7
:1032F00008F096C00E94BF050091840310918503D9
:10330000209186033091870306171707280739078E
:10331000F8F4D901C801805C9F4FAF4FBF4F809335
:10332000840390938503A0938603B0938703109141
:103330000501812F90E00E94450480910401180F3F
:10334000109305011850103F18F0819580930401E7
:103350000E94BF0500918003109181032091820398
:1033600030918303061717072807390738F540916E
:103370000601509107016091080170910901D9017E
:10338000C801840F951FA61FB71F809380039093D9
:103390008103A0938203B093830340365A4E6105A4
:1033A00071052CF480917F03882309F445C01092A5
:1033B0007F0360917F0388E00E94E60380E090E055
:1033C000892B09F498CC0E947802882309F493CCC5
:1033D0000E94000090CC84EA93E09EA38DA318A6DF
:1033E0001FA21CA21BA282E192E09AA389A38AECED
:1033F00092E09F938F9382ED91E09F938F933F9202
:103400002F920E94B20B0F900F900F900F900F9081
:103410000F90512C4ACF88EE9DEFA0E0B0E052CF44
:1034200080EF511001C088E0809305018091050173
:1034300090E00E9445048CCF81E080937F03B9CF58
:10344000F999FECF92BD81BDF89A992780B508956C
:10345000262FF999FECF1FBA92BD81BD20BD0FB6B0
:10346000F894FA9AF99A0FBE019608955058BB271E
:10347000AA270E944E1A0C94C11B0E94B31B38F05D
:103480000E94BA1B20F039F49F3F19F426F40C94E3
:10349000B01B0EF4E095E7FB0C94AA1BE92F0E94E9
:1034A000D21B58F3BA17620773078407950720F0F9
:1034B00079F4A6F50C94F41B0EF4E0950B2EBA2FBC
:1034C000A02D0B01B90190010C01CA01A00111242A
:1034D000FF27591B99F0593F50F4503E68F11A16D6
:1034E000F040A22F232F342F4427585FF3CF469567
:1034F00037952795A795F0405395C9F77EF41F1689
:10350000BA0B620B730B840BBAF09150A1F0FF0F52
:10351000BB1F661F771F881FC2F70EC0BA0F621F3E
:10352000731F841F48F4879577956795B795F7952E
:103530009E3F08F0B0CF9395880F08F09927EE0FC3
:103540009795879508950E94861B08F481E0089559
:103550000E94BC1A0C94C11B0E94BA1B58F00E9416
:10356000B31B40F029F45F3F29F00C94AA1B5111C2
:103570000C94F51B0C94B01B0E94D21B68F399238A
:10358000B1F3552391F3951B550BBB27AA2762175F
:103590007307840738F09F5F5F4F220F331F441F6C
:1035A000AA1FA9F335D00E2E3AF0E0E832D09150A0
:1035B0005040E695001CCAF72BD0FE2F29D0660F8D
:1035C000771F881FBB1F261737074807AB07B0E8D0
:1035D00009F0BB0B802DBF01FF2793585F4F3AF0D6
:1035E0009E3F510578F00C94AA1B0C94F51B5F3F8D
:1035F000E4F3983ED4F3869577956795B795F7955C
:103600009F5FC9F7880F911D9695879597F9089543
:10361000E1E0660F771F881FBB1F621773078407DF
:10362000BA0720F0621B730B840BBA0BEE1F88F7EE
:10363000E09508950E94DA1B88F09F5798F0B92F03
:103640009927B751B0F0E1F0660F771F881F991FD7
:103650001AF0BA95C9F714C0B13091F00E94F41B6A
:10366000B1E008950C94F41B672F782F8827B85F7A
:1036700039F0B93FCCF3869577956795B395D9F72F
:103680003EF490958095709561957F4F8F4F9F4F39
:103690000895E89409C097FB3EF490958095709545
:1036A00061957F4F8F4F9F4F9923A9F0F92F96E98E
:1036B000BB279395F695879577956795B795F11103
:1036C000F8CFFAF4BB0F11F460FF1BC06F5F7F4FA0
:1036D0008F4F9F4F16C0882311F096E911C07723B2
:1036E00021F09EE8872F762F05C0662371F096E8BB
:1036F000862F70E060E02AF09A95660F771F881F8A
:10370000DAF7880F9695879597F90895990F00082D
:10371000550FAA0BE0E8FEEF16161706E807F907A3
:10372000C0F012161306E407F50798F0621B730B3E
:10373000840B950B39F40A2661F0232B242B252BBF
:1037400021F408950A2609F4A140A6958FEF811D62
:10375000811D089597F99F6780E870E060E0089503
:103760009FEF80EC089500240A9416161706180699
:103770000906089500240A94121613061406050675
:103780000895092E0394000C11F4882352F0BB0F06
:1037900040F4BF2B11F460FF04C06F5F7F4F8F4F69
:1037A0009F4F089557FD9058440F551F59F05F3FA4
:1037B00071F04795880F97FB991F61F09F3F79F053
:1037C00087950895121613061406551FF2CF4695D5
:1037D000F1DF08C0161617061806991FF1CF869557
:1037E0007105610508940895E894BB27662777273B
:1037F000CB0197F908950E94861B08F48FEF089576
:1038000016F00C94C21C0C94B01B68940C94AA1B68
:103810000E94DA1BA8F39923C1F3AEF3DF93CF9391
:103820001F930F93FF92C92FDD2788232AF021973A
:10383000660F771F881FDAF720E030E040E85FEB83
:103840009FE3883920F0803E38F021968F770E94E0
:10385000371AECEAF0E004C00E94371AE9EDF0E014
:103860000E94D01C8B01BE01EC01FB2E6F57710929
:103870007595771F880B990B0E944B1B28E132E747
:1038800041E35FE30E94631CAF2D9801AE01FF90FE
:103890000F911F91CF91DF910E944E1A0C94C11B82
:1038A0000E94631C0C94C11B0E94B31B38F00E9441
:1038B000BA1B20F0952311F00C94AA1B0C94B01B9A
:1038C00011240C94F51B0E94D21B70F3959FC1F339
:1038D000950F50E0551F629FF001729FBB27F00DBE
:1038E000B11D639FAA27F00DB11DAA1F649F662713
:1038F000B00DA11D661F829F2227B00DA11D621F62
:10390000739FB00DA11D621F839FA00D611D221F1B
:10391000749F3327A00D611D231F849F600D211DFF
:10392000822F762F6A2F11249F5750409AF0F1F082
:1039300088234AF0EE0FFF1FBB1F661F771F881FEB
:1039400091505040A9F79E3F510580F00C94AA1B5E
:103950000C94F51B5F3FE4F3983ED4F3869577957E
:103960006795B795F795E7959F5FC1F7FE2B880F91
:10397000911D9695879597F908950E94861B880B4F
:10398000990B08959F3F31F0915020F487957795DA
:103990006795B795880F911D9695879597F9089526
:1039A000DF93CF931F930F93FF92EF92DF927B01F0
:1039B0008C01689406C0DA2EEF010E94631CFE01A0
:1039C000E894A5912591359145915591A6F3EF0184
:1039D0000E944E1AFE019701A801DA9469F7DF9060
:1039E000EF90FF900F911F91CF91DF910895A1E289
:1039F0001A2EAA1BBB1BFD010DC0AA1FBB1FEE1F69
:103A0000FF1FA217B307E407F50720F0A21BB30BB3
:103A1000E40BF50B661F771F881F991F1A9469F72F
:103A200060957095809590959B01AC01BD01CF018B
:103A30000895EE0FFF1F0590F491E02D09940F9368
:103A40001F93CF93DF938230910510F482E090E0D2
:103A5000E0916A05F0916B0530E020E0B0E0A0E075
:103A6000309799F42115310509F44AC0281B390B08
:103A700024303105D8F58A819B816115710589F162
:103A8000FB0193838283FE0111C040815181028139
:103A9000138148175907E0F04817590799F4109710
:103AA00061F012960C93129713961C933296CF01E5
:103AB000DF91CF911F910F91089500936A051093A4
:103AC0006B05F4CF2115310551F04217530738F03B
:103AD000A901DB019A01BD01DF01F801C1CFEF01AE
:103AE000F9CF90936B0580936A05CDCFFE01E20F6D
:103AF000F31F819391932250310939832883D7CFC3
:103B00002091680530916905232B41F4209114011F
:103B100030911501309369052093680520911201B9
:103B2000309113012115310541F42DB73EB7409175
:103B3000160150911701241B350BE0916805F09197
:103B40006905E217F307A0F42E1B3F0B281739076E
:103B500078F0AC014E5F5F4F2417350748F04E0FE9
:103B60005F1F5093690540936805819391939FCFA0
:103B7000F0E0E0E09CCFCF93DF930097E9F0FC0109
:103B8000329713821282A0916A05B0916B05ED0104
:103B900030E020E01097A1F420813181820F931F43
:103BA00020916805309169052817390709F061C02F
:103BB000F0936905E0936805DF91CF910895EA01DC
:103BC000CE17DF07E8F54A815B819E01411551055B
:103BD000B1F7E901FB83EA8349915991C40FD51FDD
:103BE000EC17FD0761F4808191810296840F951F87
:103BF000E90199838883828193819B838A83F0E0A2
:103C0000E0E012968D919C9113970097B9F52D9154
:103C10003C911197CD010296820F931F2091680568
:103C2000309169052817390739F6309751F5109208
:103C30006B0510926A05B0936905A0936805BCCF27
:103C4000D383C28340815181840F951FC817D90740
:103C500061F44E5F5F4F88819981480F591F5183EE
:103C600040838A819B81938382832115310509F0EA
:103C7000B0CFF0936B05E0936A059ECFFD01DC01A8
:0C3C8000C0CF13821282D7CFF894FFCF80
:103C8C00FFFFFFFF0880E8FD000000E100000000DE
:103C9C00000000006C058000696E69742E766572F8
:103CAC0073696F6E2025730000696E69742E636FE3
:103CBC006E7461696E6572202564000073746174A2
:103CCC007573204F4B00002573000073746174757D
:103CDC0073206D697373696E67000074656D703A5B
:103CEC002025322E316643000068756D3A20202560
:103CFC00322E31662525000064657770743A2025D4
:103D0C00322E316643000066616E2E6D696E2E7424
:103D1C00656D702E696E7465726E3A2025322E3187
:103D2C006643000066616E2E68756D69642E657859
:103D3C007465726E3A2025322E3166252500006698
:103D4C00616E2E64657770743A2025322E3166438D
:103D5C00000066616E2E7374617475732025730098
:103D6C0000E202E60200C18081000000E902F202DA
:103D7C00F802FF0200000000FE0E0E0295089408E7
:103D8C00B613F8FF0000E113000000001508000056
:103D9C00000043080E029508940800000000AD02D4
:103DAC000E023B02F9026C024A025E0200000000A5
:103DBC0019033A053A032F0380033E035C0300000A
:103DCC000000B407870795085D0780076D075E073D
:103DDC000D0A006E616E00696E66006F7666006398
:103DEC006F6E7461696E657225642E73656E736F88
:103DFC00722E25732E257300636F6E7461696E6568
:103E0C007225642E7374617475732E257300302EB5
:103E1C00393500737461747573206D697373696ED1
:103E2C0067202D20636865636B20776972696E6704
:103E3C0020262070756C6C7570732100636F64653F
:103E4C00207374617274696E67006F6666202D2032
:103E5C0073656E736F722072656164206572726F28
:103E6C0072006F6666006F6E0065787465726E61C5
:103E7C006C00696E6C6574006F75746C657400739E
:063E8C0070617265000088
:00000001FF
